{
  "_format": "hh-sol-artifact-1",
  "contractName": "AuctionManager",
  "sourceName": "contracts/AuctionManager.sol",
  "abi": [
    {
      "inputs": [
        {
          "internalType": "address",
          "name": "_pokemonContractAddress",
          "type": "address"
        }
      ],
      "stateMutability": "nonpayable",
      "type": "constructor"
    },
    {
      "inputs": [],
      "name": "ReentrancyGuardReentrantCall",
      "type": "error"
    },
    {
      "anonymous": false,
      "inputs": [
        {
          "indexed": true,
          "internalType": "uint256",
          "name": "auctionId",
          "type": "uint256"
        },
        {
          "indexed": true,
          "internalType": "address",
          "name": "seller",
          "type": "address"
        },
        {
          "indexed": true,
          "internalType": "uint256",
          "name": "pokemonId",
          "type": "uint256"
        },
        {
          "indexed": false,
          "internalType": "uint256",
          "name": "auctionEndTime",
          "type": "uint256"
        },
        {
          "indexed": false,
          "internalType": "uint256",
          "name": "startingBid",
          "type": "uint256"
        }
      ],
      "name": "AuctionCreated",
      "type": "event"
    },
    {
      "anonymous": false,
      "inputs": [
        {
          "indexed": false,
          "internalType": "address",
          "name": "winner",
          "type": "address"
        },
        {
          "indexed": false,
          "internalType": "uint256",
          "name": "amount",
          "type": "uint256"
        },
        {
          "indexed": false,
          "internalType": "uint256",
          "name": "auctionId",
          "type": "uint256"
        }
      ],
      "name": "AuctionEnded",
      "type": "event"
    },
    {
      "anonymous": false,
      "inputs": [
        {
          "indexed": true,
          "internalType": "uint256",
          "name": "listingId",
          "type": "uint256"
        },
        {
          "indexed": true,
          "internalType": "address",
          "name": "seller",
          "type": "address"
        },
        {
          "indexed": true,
          "internalType": "uint256",
          "name": "pokemonId",
          "type": "uint256"
        },
        {
          "indexed": false,
          "internalType": "uint256",
          "name": "listingEndTime",
          "type": "uint256"
        },
        {
          "indexed": false,
          "internalType": "uint256",
          "name": "price",
          "type": "uint256"
        }
      ],
      "name": "FixedPriceListed",
      "type": "event"
    },
    {
      "anonymous": false,
      "inputs": [
        {
          "indexed": false,
          "internalType": "address",
          "name": "bidder",
          "type": "address"
        },
        {
          "indexed": false,
          "internalType": "uint256",
          "name": "amount",
          "type": "uint256"
        },
        {
          "indexed": false,
          "internalType": "uint256",
          "name": "auctionId",
          "type": "uint256"
        }
      ],
      "name": "HighestBidIncreased",
      "type": "event"
    },
    {
      "anonymous": false,
      "inputs": [
        {
          "indexed": true,
          "internalType": "uint256",
          "name": "auctionId",
          "type": "uint256"
        },
        {
          "indexed": true,
          "internalType": "address",
          "name": "winner",
          "type": "address"
        },
        {
          "indexed": false,
          "internalType": "uint256",
          "name": "pokemonId",
          "type": "uint256"
        }
      ],
      "name": "NFTClaimed",
      "type": "event"
    },
    {
      "anonymous": false,
      "inputs": [
        {
          "indexed": true,
          "internalType": "uint256",
          "name": "auctionId",
          "type": "uint256"
        },
        {
          "indexed": true,
          "internalType": "address",
          "name": "seller",
          "type": "address"
        },
        {
          "indexed": false,
          "internalType": "uint256",
          "name": "pokemonId",
          "type": "uint256"
        }
      ],
      "name": "NFTRedeemedBySeller",
      "type": "event"
    },
    {
      "anonymous": false,
      "inputs": [
        {
          "indexed": false,
          "internalType": "address",
          "name": "buyer",
          "type": "address"
        },
        {
          "indexed": false,
          "internalType": "uint256",
          "name": "price",
          "type": "uint256"
        },
        {
          "indexed": false,
          "internalType": "uint256",
          "name": "listingId",
          "type": "uint256"
        }
      ],
      "name": "NFTSoldFixedPrice",
      "type": "event"
    },
    {
      "anonymous": false,
      "inputs": [
        {
          "indexed": false,
          "internalType": "uint256",
          "name": "auctionId",
          "type": "uint256"
        },
        {
          "indexed": false,
          "internalType": "uint256",
          "name": "pokemonId",
          "type": "uint256"
        },
        {
          "indexed": false,
          "internalType": "address",
          "name": "from",
          "type": "address"
        },
        {
          "indexed": false,
          "internalType": "address",
          "name": "to",
          "type": "address"
        }
      ],
      "name": "PokemonTransfered",
      "type": "event"
    },
    {
      "anonymous": false,
      "inputs": [
        {
          "indexed": true,
          "internalType": "address",
          "name": "user",
          "type": "address"
        },
        {
          "indexed": false,
          "internalType": "uint256",
          "name": "amount",
          "type": "uint256"
        },
        {
          "indexed": false,
          "internalType": "uint256",
          "name": "auctionId",
          "type": "uint256"
        }
      ],
      "name": "Withdrawal",
      "type": "event"
    },
    {
      "inputs": [
        {
          "internalType": "uint256",
          "name": "",
          "type": "uint256"
        }
      ],
      "name": "auctionData",
      "outputs": [
        {
          "internalType": "address payable",
          "name": "seller",
          "type": "address"
        },
        {
          "internalType": "uint256",
          "name": "auctionEndTime",
          "type": "uint256"
        },
        {
          "internalType": "uint256",
          "name": "pokemonId",
          "type": "uint256"
        },
        {
          "internalType": "bool",
          "name": "isFixedPrice",
          "type": "bool"
        },
        {
          "internalType": "bool",
          "name": "ended",
          "type": "bool"
        },
        {
          "internalType": "bool",
          "name": "claimed",
          "type": "bool"
        },
        {
          "internalType": "uint256",
          "name": "startingBid",
          "type": "uint256"
        },
        {
          "internalType": "address",
          "name": "highestBidder",
          "type": "address"
        },
        {
          "internalType": "uint256",
          "name": "highestBid",
          "type": "uint256"
        }
      ],
      "stateMutability": "view",
      "type": "function"
    },
    {
      "inputs": [
        {
          "internalType": "uint256",
          "name": "auctionId",
          "type": "uint256"
        }
      ],
      "name": "auctionEnd",
      "outputs": [],
      "stateMutability": "nonpayable",
      "type": "function"
    },
    {
      "inputs": [
        {
          "internalType": "uint256",
          "name": "auctionId",
          "type": "uint256"
        }
      ],
      "name": "bid",
      "outputs": [],
      "stateMutability": "payable",
      "type": "function"
    },
    {
      "inputs": [
        {
          "internalType": "uint256",
          "name": "auctionId",
          "type": "uint256"
        }
      ],
      "name": "claimWonNFT",
      "outputs": [],
      "stateMutability": "nonpayable",
      "type": "function"
    },
    {
      "inputs": [
        {
          "internalType": "uint256",
          "name": "_biddingTime",
          "type": "uint256"
        },
        {
          "internalType": "uint256",
          "name": "_startingBid",
          "type": "uint256"
        },
        {
          "internalType": "uint256",
          "name": "pokemonId",
          "type": "uint256"
        },
        {
          "internalType": "bool",
          "name": "_isFixedPrice",
          "type": "bool"
        }
      ],
      "name": "create",
      "outputs": [
        {
          "internalType": "uint256",
          "name": "",
          "type": "uint256"
        }
      ],
      "stateMutability": "nonpayable",
      "type": "function"
    },
    {
      "inputs": [
        {
          "internalType": "uint256",
          "name": "auctionId",
          "type": "uint256"
        },
        {
          "internalType": "address",
          "name": "user",
          "type": "address"
        }
      ],
      "name": "getPendingReturn",
      "outputs": [
        {
          "internalType": "uint256",
          "name": "",
          "type": "uint256"
        }
      ],
      "stateMutability": "view",
      "type": "function"
    },
    {
      "inputs": [],
      "name": "pokemonContract",
      "outputs": [
        {
          "internalType": "contract PokemonTest",
          "name": "",
          "type": "address"
        }
      ],
      "stateMutability": "view",
      "type": "function"
    },
    {
      "inputs": [
        {
          "internalType": "uint256",
          "name": "auctionId",
          "type": "uint256"
        }
      ],
      "name": "reclaimUnsoldNFT",
      "outputs": [],
      "stateMutability": "nonpayable",
      "type": "function"
    },
    {
      "inputs": [],
      "name": "totalAuctionsCreated",
      "outputs": [
        {
          "internalType": "uint256",
          "name": "",
          "type": "uint256"
        }
      ],
      "stateMutability": "view",
      "type": "function"
    },
    {
      "inputs": [
        {
          "internalType": "uint256",
          "name": "auctionId",
          "type": "uint256"
        }
      ],
      "name": "withdraw",
      "outputs": [
        {
          "internalType": "bool",
          "name": "",
          "type": "bool"
        }
      ],
      "stateMutability": "nonpayable",
      "type": "function"
    }
  ],
  "bytecode": "0x60806040523461002f576100196100146100fa565b6101fe565b610021610034565b6126f461028482396126f490f35b61003a565b60405190565b600080fd5b601f801991011690565b634e487b7160e01b600052604160045260246000fd5b906100699061003f565b810190811060018060401b0382111761008157604052565b610049565b90610099610092610034565b928361005f565b565b600080fd5b60018060a01b031690565b6100b4906100a0565b90565b6100c0816100ab565b036100c757565b600080fd5b905051906100d9826100b7565b565b906020828203126100f5576100f2916000016100cc565b90565b61009b565b6101186129788038038061010d81610086565b9283398101906100db565b90565b60001b90565b9061012e6000199161011b565b9181191691161790565b90565b90565b90565b61015561015061015a92610138565b61013e565b61013b565b90565b90565b9061017561017061017c92610141565b61015d565b8254610121565b9055565b61019461018f610199926100a0565b61013e565b6100a0565b90565b6101a590610180565b90565b6101b19061019c565b90565b906101c560018060a01b039161011b565b9181191691161790565b6101d89061019c565b90565b90565b906101f36101ee6101fa926101cf565b6101db565b82546101b4565b9055565b61021d6102249161020d61026f565b610218600180610160565b6101a8565b60026101de565b565b6102306001610141565b90565b61024761024261024c9261013b565b61013e565b61013b565b90565b9061026461025f61026b92610233565b61015d565b8254610121565b9055565b61028161027a610226565b600061024f565b56fe60806040526004361015610013575b610755565b61001e6000356100bd565b80630b08c5f6146100b85780630b2ee7e9146100b357806318aa08f3146100ae5780632e1a7d4d146100a957806332246e9f146100a4578063454a2ab31461009f57806355fc62d21461009a5780636d50905f1461009557806386005c0a146100905763d02ef6f90361000e5761071f565b61069a565b610665565b61058a565b6102ee565b6102bb565b610286565b61022e565b6101e5565b61011f565b60e01c90565b60405190565b600080fd5b600080fd5b90565b6100df816100d3565b036100e657565b600080fd5b905035906100f8826100d6565b565b9060208282031261011457610111916000016100eb565b90565b6100ce565b60000190565b3461014d576101376101323660046100fa565b610e43565b61013f6100c3565b8061014981610119565b0390f35b6100c9565b151590565b61016081610152565b0361016757565b600080fd5b9050359061017982610157565b565b6080818303126101bd5761019282600083016100eb565b926101ba6101a384602085016100eb565b936101b181604086016100eb565b9360600161016c565b90565b6100ce565b6101cb906100d3565b9052565b91906101e3906000602085019401906101c2565b565b34610219576102156102046101fb36600461017b565b929190916115f3565b61020c6100c3565b918291826101cf565b0390f35b6100c9565b600091031261022957565b6100ce565b3461025e5761023e36600461021e565b61025a61024961164e565b6102516100c3565b918291826101cf565b0390f35b6100c9565b61026c90610152565b9052565b919061028490600060208501940190610263565b565b346102b6576102b26102a161029c3660046100fa565b6117c3565b6102a96100c3565b91829182610270565b0390f35b6100c9565b346102e9576102d36102ce3660046100fa565b611b7f565b6102db6100c3565b806102e581610119565b0390f35b6100c9565b6103016102fc3660046100fa565b6121f0565b6103096100c3565b8061031381610119565b0390f35b90565b61032e610329610333926100d3565b610317565b6100d3565b90565b906103409061031a565b600052602052604060002090565b60001c90565b60018060a01b031690565b61036b6103709161034e565b610354565b90565b61037d905461035f565b90565b90565b61038f6103949161034e565b610380565b90565b6103a19054610383565b90565b60ff1690565b6103b66103bb9161034e565b6103a4565b90565b6103c890546103aa565b90565b60081c90565b6103dd6103e2916103cb565b6103a4565b90565b6103ef90546103d1565b90565b60101c90565b610404610409916103f2565b6103a4565b90565b61041690546103f8565b90565b60018060a01b031690565b6104306104359161034e565b610419565b90565b6104429054610424565b90565b610450906003610336565b61045c60008201610373565b9161046960018301610397565b9161047660028201610397565b91610483600383016103be565b91610490600382016103e5565b9161049d6003830161040c565b916104aa60048201610397565b916104c360066104bc60058501610438565b9301610397565b90565b60018060a01b031690565b6104da906104c6565b90565b6104e6906104d1565b9052565b6104f3906104c6565b90565b6104ff906104ea565b9052565b9694929099989795939161012088019a60008901610520916104dd565b6020880161052d916101c2565b6040870161053a916101c2565b6060860161054791610263565b6080850161055491610263565b60a0840161056191610263565b60c0830161056e916101c2565b60e0820161057b916104f6565b61010001610588916101c2565b565b346105c4576105c06105a56105a03660046100fa565b610445565b956105b79997999591959492946100c3565b998a998a610503565b0390f35b6100c9565b1c90565b60018060a01b031690565b6105e89060086105ed93026105c9565b6105cd565b90565b906105fb91546105d8565b90565b61060b60026000906105f0565b90565b61062261061d610627926104c6565b610317565b6104c6565b90565b6106339061060e565b90565b61063f9061062a565b90565b61064b90610636565b9052565b919061066390600060208501940190610642565b565b346106955761067536600461021e565b6106916106806105fe565b6106886100c3565b9182918261064f565b0390f35b6100c9565b346106c8576106b26106ad3660046100fa565b61259c565b6106ba6100c3565b806106c481610119565b0390f35b6100c9565b6106d6816104ea565b036106dd57565b600080fd5b905035906106ef826106cd565b565b919060408382031261071a578061070e61071792600086016100eb565b936020016106e2565b90565b6100ce565b346107505761074c61073b6107353660046106f1565b906125a7565b6107436100c3565b918291826101cf565b0390f35b6100c9565b600080fd5b61076b90610766612644565b610c05565b6107736126aa565b565b90565b90565b61078f61078a61079492610778565b610317565b6104c6565b90565b6107a09061077b565b90565b6107ac9061062a565b90565b60209181520190565b60007f41756374696f6e20646f6573206e6f742065786973742e000000000000000000910152565b6107ed60176020926107af565b6107f6816107b8565b0190565b61081090602081019060008183039101526107e0565b90565b1561081a57565b6108226100c3565b62461bcd60e51b815280610838600482016107fa565b0390fd5b60007f41756374696f6e20686173206e6f7420656e646564207965742e000000000000910152565b610871601a6020926107af565b61087a8161083c565b0190565b6108949060208101906000818303910152610864565b90565b1561089e57565b6108a66100c3565b62461bcd60e51b8152806108bc6004820161087e565b0390fd5b60207f6d2e000000000000000000000000000000000000000000000000000000000000917f4f6e6c79207468652068696768657374206269646465722063616e20636c616960008201520152565b61091b60226040926107af565b610924816108c0565b0190565b61093e906020810190600081830391015261090e565b90565b1561094857565b6109506100c3565b62461bcd60e51b81528061096660048201610928565b0390fd5b60207f696f6e2e00000000000000000000000000000000000000000000000000000000917f4e6f2062696473207765726520706c61636564206f6e2074686973206175637460008201520152565b6109c560246040926107af565b6109ce8161096a565b0190565b6109e890602081019060008183039101526109b8565b90565b156109f257565b6109fa6100c3565b62461bcd60e51b815280610a10600482016109d2565b0390fd5b60007f4e46542068617320616c7265616479206265656e20636c61696d65642e000000910152565b610a49601d6020926107af565b610a5281610a14565b0190565b610a6c9060208101906000818303910152610a3c565b90565b15610a7657565b610a7e6100c3565b62461bcd60e51b815280610a9460048201610a56565b0390fd5b60101b90565b90610aac62ff000091610a98565b9181191691161790565b610abf90610152565b90565b90565b90610ada610ad5610ae192610ab6565b610ac2565b8254610a9e565b9055565b610af1610af69161034e565b6105cd565b90565b610b039054610ae5565b90565b610b0f9061062a565b90565b600080fd5b601f801991011690565b634e487b7160e01b600052604160045260246000fd5b90610b4190610b17565b810190811067ffffffffffffffff821117610b5b57604052565b610b21565b60e01b90565b6000910312610b7157565b6100ce565b604090610ba0610ba79496959396610b96606084019860008501906104f6565b60208301906104f6565b01906101c2565b565b610bb16100c3565b3d6000823e3d90fd5b610bc39061062a565b90565b610bfc610c0394610bf2606094989795610be8608086019a60008701906101c2565b60208501906101c2565b60408301906104f6565b01906104f6565b565b610c19610c1460038390610336565b610775565b90610c4b610c2960008401610373565b610c44610c3e610c396000610797565b6104ea565b916107a3565b1415610813565b610c5f610c5a600384016103e5565b610897565b610c8633610c80610c7a610c7560058701610438565b6104ea565b916104ea565b14610941565b610cb7610c9560058401610438565b610cb0610caa610ca56000610797565b6104ea565b916104ea565b14156109eb565b610cd4610ccf610cc96003850161040c565b15610152565b610a6f565b610ce2600160038401610ac5565b610cf4610cef6002610af9565b610636565b906323b872dd610d0330610b06565b3393610d1160028701610397565b92813b15610e3e576000610d3891610d438296610d2c6100c3565b998a9788968795610b60565b855260048501610b76565b03925af1908115610e3957610dc692600292610e0c575b5080610d6860058601610438565b610d73848701610397565b91610dbc610daa610da47f92ffae31901780890e35bdc724fedb7601577492b5d4e3df85f785de59d737ab9361031a565b93610bba565b93610db36100c3565b918291826101cf565b0390a39201610397565b610dcf30610b06565b91610e07337fb39a1403de35be85fc823ae3762b8d3c220417c7b6ca54c5eacbfbfd551a0ab294610dfe6100c3565b94859485610bc6565b0390a1565b610e2c9060003d8111610e32575b610e248183610b37565b810190610b66565b38610d5a565b503d610e1a565b610ba9565b610b12565b610e4c9061075a565b565b600090565b90610e6894939291610e63612644565b61126d565b90610e716126aa565b565b90505190610e8082610157565b565b90602082820312610e9c57610e9991600001610e73565b90565b6100ce565b916020610ec3929493610ebc604082019660008301906104f6565b01906101c2565b565b60207f6b656d6f6e000000000000000000000000000000000000000000000000000000917f596f7520617265206e6f7420746865206f776e6572206f66207468697320506f60008201520152565b610f2060256040926107af565b610f2981610ec5565b0190565b610f439060208101906000818303910152610f13565b90565b15610f4d57565b610f556100c3565b62461bcd60e51b815280610f6b60048201610f2d565b0390fd5b610f83610f7e610f8892610778565b610317565b6100d3565b90565b60207f6e20300000000000000000000000000000000000000000000000000000000000917f42696464696e672074696d65206d75737420626520677265617465722074686160008201520152565b610fe660236040926107af565b610fef81610f8b565b0190565b6110099060208101906000818303910152610fd9565b90565b1561101357565b61101b6100c3565b62461bcd60e51b81528061103160048201610ff3565b0390fd5b1561103c57565b600080fd5b9050519061104e826106cd565b565b9060208282031261106a5761106791600001611041565b90565b6100ce565b60207f20627920746865206f776e657220666f72207468697320746f6b656e00000000917f41756374696f6e206d616e61676572206d75737420626520617070726f76656460008201520152565b6110ca603c6040926107af565b6110d38161106f565b0190565b6110ed90602081019060008183039101526110bd565b90565b156110f757565b6110ff6100c3565b62461bcd60e51b815280611115600482016110d7565b0390fd5b634e487b7160e01b600052601160045260246000fd5b611138906100d3565b60001981146111475760010190565b611119565b60001b90565b9061115f6000199161114c565b9181191691161790565b90565b9061118161117c6111889261031a565b611169565b8254611152565b9055565b6111959061060e565b90565b6111a19061118c565b90565b906111b560018060a01b039161114c565b9181191691161790565b6111c89061118c565b90565b90565b906111e36111de6111ea926111bf565b6111cb565b82546111a4565b9055565b6111fd611203919392936100d3565b926100d3565b820180921161120e57565b611119565b9061121f60ff9161114c565b9181191691161790565b9061123e61123961124592610ab6565b610ac2565b8254611213565b9055565b91602061126b929493611264604082019660008301906101c2565b01906101c2565b565b929091925061128461127f6002610af9565b610636565b602063e327a6af9133906112aa85946112b561129e6100c3565b96879586948594610b60565b845260048401610ea1565b03915afa80156115ee576112d1916000916115c0575b50610f46565b6112ee826112e86112e26000610f6f565b916100d3565b1161100c565b6113006112fb6002610af9565b610636565b602063e327a6af913390611326859461133161131a6100c3565b96879586948594610b60565b845260048401610ea1565b03915afa80156115bb5761134d9160009161158d575b50611035565b61138e602061136461135f6002610af9565b610636565b63081812fc9061138385926113776100c3565b95869485938493610b60565b8352600483016101cf565b03915afa8015611588576113c59160009161155a575b506113bf6113b96113b430610b06565b6104ea565b916104ea565b146110f0565b6113d76113d26002610af9565b610636565b6323b872dd336113e630610b06565b928492813b1561155557600061140f9161141a82966114036100c3565b98899788968795610b60565b855260048501610b76565b03925af1801561155057611523575b506114bc6114376001610397565b61144a6114438261112f565b600161116c565b9461148b61148261145a33611198565b9561147c61147261146d60038c90610336565b610775565b97600089016111ce565b426111ee565b6001860161116c565b611498856004860161116c565b6114a5836002860161116c565b6114b3600060038601610ac5565b60038401611229565b836114cb600133939401610397565b936115086115026114fc7f05f9bf100dd0ca9f37f08e0526690286d357ed7d6c5a4ac29730440b6e2dfd629461031a565b94610bba565b9461031a565b9461151d6115146100c3565b92839283611249565b0390a490565b6115439060003d8111611549575b61153b8183610b37565b810190610b66565b38611429565b503d611531565b610ba9565b610b12565b61157b915060203d8111611581575b6115738183610b37565b810190611050565b386113a4565b503d611569565b610ba9565b6115ae915060203d81116115b4575b6115a68183610b37565b810190610e82565b38611347565b503d61159c565b610ba9565b6115e1915060203d81116115e7575b6115d98183610b37565b810190610e82565b386112cb565b503d6115cf565b610ba9565b90611607939291611602610e4e565b610e53565b90565b90565b61162161161c6116269261160a565b610317565b6100d3565b90565b61163861163e919392936100d3565b926100d3565b820391821161164957565b611119565b611656610e4e565b506116746116646001610397565b61166e600161160d565b90611629565b90565b600090565b9061168e91611689612644565b6116b1565b906116976126aa565b565b906116a390610bba565b600052602052604060002090565b506116c66116c160038390610336565b610775565b6116dc6116d7600783013390611699565b610397565b90816116f16116eb6000610f6f565b916100d3565b116116ff575b505050600190565b61171f61170c6000610f6f565b61171a600784013390611699565b61116c565b611749600080808061173861173333611198565b6107a3565b87908282156117ba575bf115610152565b61179b575033909161177b7fdf273cb619d95419a9cd0ec88123a0538c85064229baa6363788f743fff90deb92610bba565b926117906117876100c3565b92839283611249565b0390a23880806116f7565b906117b5925060076117b09192013390611699565b61116c565b600090565b506108fc611742565b6117d4906117cf611677565b61167c565b90565b6117e8906117e3612644565b611a2c565b6117f06126aa565b565b60207f6374696f6e000000000000000000000000000000000000000000000000000000917f4f6e6c79207468652073656c6c65722063616e20656e6420746865697220617560008201520152565b61184d60256040926107af565b611856816117f2565b0190565b6118709060208101906000818303910152611840565b90565b1561187a57565b6118826100c3565b62461bcd60e51b8152806118986004820161185a565b0390fd5b60007f41756374696f6e206e6f742079657420656e6465642e00000000000000000000910152565b6118d160166020926107af565b6118da8161189c565b0190565b6118f490602081019060008183039101526118c4565b90565b156118fe57565b6119066100c3565b62461bcd60e51b81528061191c600482016118de565b0390fd5b60007f5468652061756374696f6e2068617320616c726561647920656e646564000000910152565b611955601d6020926107af565b61195e81611920565b0190565b6119789060208101906000818303910152611948565b90565b1561198257565b61198a6100c3565b62461bcd60e51b8152806119a060048201611962565b0390fd5b60081b90565b906119b761ff00916119a4565b9181191691161790565b906119d66119d16119dd92610ab6565b610ac2565b82546119aa565b9055565b604090611a0b611a129496959396611a01606084019860008501906104f6565b60208301906101c2565b01906101c2565b565b90611a1e906107a3565b600052602052604060002090565b611a40611a3b60038390610336565b610775565b90611a6833611a62611a5c611a5760008701610373565b6107a3565b916104ea565b14611873565b611a9042611a89611a83611a7e60018701610397565b6100d3565b916100d3565b10156118f7565b611aad611aa8611aa2600385016103e5565b15610152565b61197b565b611abb6001600384016119c1565b611ac760058301610438565b90611ad460068401610397565b9091611b0c7fc358e8e3f205b5e7453abd5cbac388ca4552b887b69001bc972b88610c74903593611b036100c3565b938493846119e1565b0390a1611b1b60068201610397565b611b2e611b286000610f6f565b916100d3565b11611b37575b50565b80611b73611b64611b4d6006611b799501610397565b92611b5e6000600783019201610373565b90611a14565b91611b6e83610397565b6111ee565b9061116c565b38611b34565b611b88906117d7565b565b611b9b90611b96612644565b611f52565b611ba36126aa565b565b60007f41756374696f6e20646f6573206e6f7420657869737400000000000000000000910152565b611bda60166020926107af565b611be381611ba5565b0190565b611bfd9060208101906000818303910152611bcd565b90565b15611c0757565b611c0f6100c3565b62461bcd60e51b815280611c2560048201611be7565b0390fd5b60007f41756374696f6e20616c726561647920656e6465642e00000000000000000000910152565b611c5e60166020926107af565b611c6781611c29565b0190565b611c819060208101906000818303910152611c51565b90565b15611c8b57565b611c936100c3565b62461bcd60e51b815280611ca960048201611c6b565b0390fd5b60007f546865726520697320616c7265616479206120686967686572206269642e0000910152565b611ce2601e6020926107af565b611ceb81611cad565b0190565b611d059060208101906000818303910152611cd5565b90565b15611d0f57565b611d176100c3565b62461bcd60e51b815280611d2d60048201611cef565b0390fd5b60207f7274696e67206269640000000000000000000000000000000000000000000000917f42696473206d75737420626520686967686572207468616e207468652073746160008201520152565b611d8c60296040926107af565b611d9581611d31565b0190565b611daf9060208101906000818303910152611d7f565b90565b15611db957565b611dc16100c3565b62461bcd60e51b815280611dd760048201611d99565b0390fd5b60207f756374696f6e0000000000000000000000000000000000000000000000000000917f53656c6c65722063616e6e6f7420626964206f6e207468656972206f776e206160008201520152565b611e3660266040926107af565b611e3f81611ddb565b0190565b611e599060208101906000818303910152611e29565b90565b15611e6357565b611e6b6100c3565b62461bcd60e51b815280611e8160048201611e43565b0390fd5b60207f6865207072696365206f6620746865204e465400000000000000000000000000917f5468652062757965722073686f756c64207370656e642065786163746c79207460008201520152565b611ee060336040926107af565b611ee981611e85565b0190565b611f039060208101906000818303910152611ed3565b90565b15611f0d57565b611f156100c3565b62461bcd60e51b815280611f2b60048201611eed565b0390fd5b90565b90611f47611f42611f4e92610bba565b611f2f565b82546111a4565b9055565b611f66611f6160038390610336565b610775565b611f97611f7560008301610373565b611f90611f8a611f856000610797565b6104ea565b916107a3565b1415611c00565b611fbf42611fb8611fb2611fad60018601610397565b6100d3565b916100d3565b1115611c84565b611fe634611fe0611fda611fd560068601610397565b6100d3565b916100d3565b11611d08565b61200e34612007612001611ffc60048601610397565b6100d3565b916100d3565b1015611db2565b6120363361202f61202961202460008601610373565b6107a3565b916104ea565b1415611e5c565b612042600382016103be565b6121c4575b61205360068201610397565b6120666120606000610f6f565b916100d3565b0361217f575b6120793360058301611f32565b612086346006830161116c565b612092600382016103be565b6120d8575b5033903490916120d37fdafc4a123c6bb3b49dd38a0cba299808581a0126a37248a5f1102d5e5fa06337936120ca6100c3565b938493846119e1565b0390a1565b6120e66001600383016119c1565b6121266120f560068301610397565b6121206121116007850161210b60008701610373565b90611a14565b9161211b83610397565b6111ee565b9061116c565b61213e600661213760058401610438565b9201610397565b82916121767fc358e8e3f205b5e7453abd5cbac388ca4552b887b69001bc972b88610c7490359361216d6100c3565b938493846119e1565b0390a138612097565b6121bf61218e60068301610397565b6121b96121aa600785016121a460058701610438565b90611699565b916121b483610397565b6111ee565b9061116c565b61206c565b6121eb346121e56121df6121da60048601610397565b6100d3565b916100d3565b14611f06565b612047565b6121f990611b8a565b565b61220c90612207612644565b61236a565b6122146126aa565b565b60007f4f6e6c79207468652073656c6c65722063616e207265636c61696d2e00000000910152565b61224b601c6020926107af565b61225481612216565b0190565b61226e906020810190600081830391015261223e565b90565b1561227857565b6122806100c3565b62461bcd60e51b81528061229660048201612258565b0390fd5b60407f652068696768657374206269646465722e000000000000000000000000000000917f41756374696f6e20726563656976656420626964732e2055736520636c61696d60008201527f576f6e41756374696f6e20696e737465616420696620796f752061726520746860208201520152565b61231b60516060926107af565b6123248161229a565b0190565b61233e906020810190600081830391015261230e565b90565b1561234857565b6123506100c3565b62461bcd60e51b81528061236660048201612328565b0390fd5b61237e61237960038390610336565b610775565b906123b061238e60008401610373565b6123a96123a361239e6000610797565b6104ea565b916107a3565b1415610813565b6123c46123bf600384016103e5565b610897565b6123eb336123e56123df6123da60008701610373565b6107a3565b916104ea565b14612271565b61241b6123fa60058401610438565b61241561240f61240a6000610797565b6104ea565b916104ea565b14612341565b61243861243361242d6003850161040c565b15610152565b610a6f565b612446600160038401610ac5565b6124586124536002610af9565b610636565b906323b872dd61246730610b06565b339361247560028701610397565b92813b1561259757600061249c916124a782966124906100c3565b998a9788968795610b60565b855260048501610b76565b03925af19081156125925761251f92600292612565575b5080336124cc848701610397565b916125156125036124fd7fb6080646ad6872baa346ca775fe5cfcc0bb6397346f00aafc25f3df2a9b348379361031a565b93610bba565b9361250c6100c3565b918291826101cf565b0390a39201610397565b61252830610b06565b91612560337fb39a1403de35be85fc823ae3762b8d3c220417c7b6ca54c5eacbfbfd551a0ab2946125576100c3565b94859485610bc6565b0390a1565b6125859060003d811161258b575b61257d8183610b37565b810190610b66565b386124be565b503d612573565b610ba9565b610b12565b6125a5906121fb565b565b6125af610e4e565b506125c760006125c160038490610336565b01610373565b6125e26125dc6125d76000610797565b6104ea565b916107a3565b14612609576126069160076125fb612601936003610336565b01611699565b610397565b90565b50506126156000610f6f565b90565b90565b61262f61262a61263492612618565b610317565b6100d3565b90565b612641600261261b565b90565b61264e6000610397565b61266761266161265c612637565b6100d3565b916100d3565b146126805761267e612677612637565b600061116c565b565b6000633ee5aeb560e01b81528061269960048201610119565b0390fd5b6126a7600161160d565b90565b6126bc6126b561269d565b600061116c565b56fea2646970667358221220f61e22a7b5004da014e56ee2f2823b75fd218bbc7a53d488b8c37689c3adad6a64736f6c634300081c0033",
  "linkReferences": {},
  "deployedLinkReferences": {}
}