{
  "_format": "hh-sol-artifact-1",
  "contractName": "AuctionManager",
  "sourceName": "contracts/AuctionManager.sol",
  "abi": [
    {
      "inputs": [
        {
          "internalType": "address",
          "name": "_pokemonContractAddress",
          "type": "address"
        }
      ],
      "stateMutability": "nonpayable",
      "type": "constructor"
    },
    {
      "inputs": [],
      "name": "ReentrancyGuardReentrantCall",
      "type": "error"
    },
    {
      "anonymous": false,
      "inputs": [
        {
          "indexed": true,
          "internalType": "uint256",
          "name": "auctionId",
          "type": "uint256"
        },
        {
          "indexed": true,
          "internalType": "address",
          "name": "seller",
          "type": "address"
        },
        {
          "indexed": true,
          "internalType": "uint256",
          "name": "pokemonId",
          "type": "uint256"
        },
        {
          "indexed": false,
          "internalType": "uint256",
          "name": "auctionEndTime",
          "type": "uint256"
        },
        {
          "indexed": false,
          "internalType": "uint256",
          "name": "startingBid",
          "type": "uint256"
        }
      ],
      "name": "AuctionCreated",
      "type": "event"
    },
    {
      "anonymous": false,
      "inputs": [
        {
          "indexed": false,
          "internalType": "address",
          "name": "winner",
          "type": "address"
        },
        {
          "indexed": false,
          "internalType": "uint256",
          "name": "amount",
          "type": "uint256"
        },
        {
          "indexed": false,
          "internalType": "uint256",
          "name": "auctionId",
          "type": "uint256"
        }
      ],
      "name": "AuctionEnded",
      "type": "event"
    },
    {
      "anonymous": false,
      "inputs": [
        {
          "indexed": false,
          "internalType": "address",
          "name": "bidder",
          "type": "address"
        },
        {
          "indexed": false,
          "internalType": "uint256",
          "name": "amount",
          "type": "uint256"
        },
        {
          "indexed": false,
          "internalType": "uint256",
          "name": "auctionId",
          "type": "uint256"
        }
      ],
      "name": "HighestBidIncreased",
      "type": "event"
    },
    {
      "anonymous": false,
      "inputs": [
        {
          "indexed": true,
          "internalType": "uint256",
          "name": "auctionId",
          "type": "uint256"
        },
        {
          "indexed": true,
          "internalType": "address",
          "name": "winner",
          "type": "address"
        },
        {
          "indexed": false,
          "internalType": "uint256",
          "name": "pokemonId",
          "type": "uint256"
        }
      ],
      "name": "NFTClaimed",
      "type": "event"
    },
    {
      "anonymous": false,
      "inputs": [
        {
          "indexed": true,
          "internalType": "uint256",
          "name": "auctionId",
          "type": "uint256"
        },
        {
          "indexed": true,
          "internalType": "address",
          "name": "seller",
          "type": "address"
        },
        {
          "indexed": false,
          "internalType": "uint256",
          "name": "pokemonId",
          "type": "uint256"
        }
      ],
      "name": "NFTRedeemedBySeller",
      "type": "event"
    },
    {
      "anonymous": false,
      "inputs": [
        {
          "indexed": false,
          "internalType": "uint256",
          "name": "auctionId",
          "type": "uint256"
        },
        {
          "indexed": false,
          "internalType": "uint256",
          "name": "pokemonId",
          "type": "uint256"
        },
        {
          "indexed": false,
          "internalType": "address",
          "name": "from",
          "type": "address"
        },
        {
          "indexed": false,
          "internalType": "address",
          "name": "to",
          "type": "address"
        }
      ],
      "name": "PokemonTransfered",
      "type": "event"
    },
    {
      "anonymous": false,
      "inputs": [
        {
          "indexed": true,
          "internalType": "address",
          "name": "user",
          "type": "address"
        },
        {
          "indexed": false,
          "internalType": "uint256",
          "name": "amount",
          "type": "uint256"
        },
        {
          "indexed": false,
          "internalType": "uint256",
          "name": "auctionId",
          "type": "uint256"
        }
      ],
      "name": "Withdrawal",
      "type": "event"
    },
    {
      "inputs": [
        {
          "internalType": "uint256",
          "name": "",
          "type": "uint256"
        }
      ],
      "name": "auctionData",
      "outputs": [
        {
          "internalType": "address payable",
          "name": "seller",
          "type": "address"
        },
        {
          "internalType": "uint256",
          "name": "auctionEndTime",
          "type": "uint256"
        },
        {
          "internalType": "uint256",
          "name": "startingBid",
          "type": "uint256"
        },
        {
          "internalType": "uint256",
          "name": "pokemonId",
          "type": "uint256"
        },
        {
          "internalType": "address",
          "name": "highestBidder",
          "type": "address"
        },
        {
          "internalType": "uint256",
          "name": "highestBid",
          "type": "uint256"
        },
        {
          "internalType": "bool",
          "name": "ended",
          "type": "bool"
        },
        {
          "internalType": "bool",
          "name": "claimed",
          "type": "bool"
        }
      ],
      "stateMutability": "view",
      "type": "function"
    },
    {
      "inputs": [
        {
          "internalType": "uint256",
          "name": "auctionId",
          "type": "uint256"
        }
      ],
      "name": "auctionEnd",
      "outputs": [],
      "stateMutability": "nonpayable",
      "type": "function"
    },
    {
      "inputs": [
        {
          "internalType": "uint256",
          "name": "auctionId",
          "type": "uint256"
        }
      ],
      "name": "bid",
      "outputs": [],
      "stateMutability": "payable",
      "type": "function"
    },
    {
      "inputs": [
        {
          "internalType": "uint256",
          "name": "auctionId",
          "type": "uint256"
        }
      ],
      "name": "claimWonNFT",
      "outputs": [],
      "stateMutability": "nonpayable",
      "type": "function"
    },
    {
      "inputs": [
        {
          "internalType": "uint256",
          "name": "_biddingTime",
          "type": "uint256"
        },
        {
          "internalType": "uint256",
          "name": "_startingBid",
          "type": "uint256"
        },
        {
          "internalType": "uint256",
          "name": "pokemonId",
          "type": "uint256"
        }
      ],
      "name": "create",
      "outputs": [
        {
          "internalType": "uint256",
          "name": "",
          "type": "uint256"
        }
      ],
      "stateMutability": "nonpayable",
      "type": "function"
    },
    {
      "inputs": [
        {
          "internalType": "uint256",
          "name": "auctionId",
          "type": "uint256"
        },
        {
          "internalType": "address",
          "name": "user",
          "type": "address"
        }
      ],
      "name": "getPendingReturn",
      "outputs": [
        {
          "internalType": "uint256",
          "name": "",
          "type": "uint256"
        }
      ],
      "stateMutability": "view",
      "type": "function"
    },
    {
      "inputs": [],
      "name": "pokemonContract",
      "outputs": [
        {
          "internalType": "contract PokemonTest",
          "name": "",
          "type": "address"
        }
      ],
      "stateMutability": "view",
      "type": "function"
    },
    {
      "inputs": [
        {
          "internalType": "uint256",
          "name": "auctionId",
          "type": "uint256"
        }
      ],
      "name": "reclaimUnsoldNFT",
      "outputs": [],
      "stateMutability": "nonpayable",
      "type": "function"
    },
    {
      "inputs": [],
      "name": "totalAuctionsCreated",
      "outputs": [
        {
          "internalType": "uint256",
          "name": "",
          "type": "uint256"
        }
      ],
      "stateMutability": "view",
      "type": "function"
    },
    {
      "inputs": [
        {
          "internalType": "uint256",
          "name": "auctionId",
          "type": "uint256"
        }
      ],
      "name": "withdraw",
      "outputs": [
        {
          "internalType": "bool",
          "name": "",
          "type": "bool"
        }
      ],
      "stateMutability": "nonpayable",
      "type": "function"
    }
  ],
  "bytecode": "0x60806040523461002f576100196100146100fa565b6101fe565b610021610034565b6124a461028482396124a490f35b61003a565b60405190565b600080fd5b601f801991011690565b634e487b7160e01b600052604160045260246000fd5b906100699061003f565b810190811060018060401b0382111761008157604052565b610049565b90610099610092610034565b928361005f565b565b600080fd5b60018060a01b031690565b6100b4906100a0565b90565b6100c0816100ab565b036100c757565b600080fd5b905051906100d9826100b7565b565b906020828203126100f5576100f2916000016100cc565b90565b61009b565b6101186127288038038061010d81610086565b9283398101906100db565b90565b60001b90565b9061012e6000199161011b565b9181191691161790565b90565b90565b90565b61015561015061015a92610138565b61013e565b61013b565b90565b90565b9061017561017061017c92610141565b61015d565b8254610121565b9055565b61019461018f610199926100a0565b61013e565b6100a0565b90565b6101a590610180565b90565b6101b19061019c565b90565b906101c560018060a01b039161011b565b9181191691161790565b6101d89061019c565b90565b90565b906101f36101ee6101fa926101cf565b6101db565b82546101b4565b9055565b61021d6102249161020d61026f565b610218600180610160565b6101a8565b60026101de565b565b6102306001610141565b90565b61024761024261024c9261013b565b61013e565b61013b565b90565b9061026461025f61026b92610233565b61015d565b8254610121565b9055565b61028161027a610226565b600061024f565b56fe60806040526004361015610013575b6106e0565b61001e6000356100bd565b80630b08c5f6146100b857806318aa08f3146100b35780632e1a7d4d146100ae57806332246e9f146100a9578063454a2ab3146100a457806355fc62d21461009f5780636d50905f1461009a57806386005c0a14610095578063c97fe94b146100905763d02ef6f90361000e576106aa565b610622565b6105b4565b61057f565b6104a4565b61024a565b610217565b6101e2565b610185565b61011f565b60e01c90565b60405190565b600080fd5b600080fd5b90565b6100df816100d3565b036100e657565b600080fd5b905035906100f8826100d6565b565b9060208282031261011457610111916000016100eb565b90565b6100ce565b60000190565b3461014d576101376101323660046100fa565b610dcd565b61013f6100c3565b8061014981610119565b0390f35b6100c9565b600091031261015d57565b6100ce565b61016b906100d3565b9052565b919061018390600060208501940190610162565b565b346101b557610195366004610152565b6101b16101a0610e37565b6101a86100c3565b9182918261016f565b0390f35b6100c9565b151590565b6101c8906101ba565b9052565b91906101e0906000602085019401906101bf565b565b346102125761020e6101fd6101f83660046100fa565b611044565b6102056100c3565b918291826101cc565b0390f35b6100c9565b346102455761022f61022a3660046100fa565b61141e565b6102376100c3565b8061024181610119565b0390f35b6100c9565b61025d6102583660046100fa565b61190a565b6102656100c3565b8061026f81610119565b0390f35b90565b61028a61028561028f926100d3565b610273565b6100d3565b90565b9061029c90610276565b600052602052604060002090565b60001c90565b60018060a01b031690565b6102c76102cc916102aa565b6102b0565b90565b6102d990546102bb565b90565b90565b6102eb6102f0916102aa565b6102dc565b90565b6102fd90546102df565b90565b60018060a01b031690565b61031761031c916102aa565b610300565b90565b610329905461030b565b90565b60ff1690565b61033e610343916102aa565b61032c565b90565b6103509054610332565b90565b60081c90565b61036561036a91610353565b61032c565b90565b6103779054610359565b90565b610385906003610292565b90610392600083016102cf565b9161039f600182016102f3565b916103ac600283016102f3565b916103b9600382016102f3565b916103c66004830161031f565b916103d3600582016102f3565b916103eb60066103e4818501610346565b930161036d565b90565b60018060a01b031690565b610402906103ee565b90565b61040e906103f9565b9052565b61041b906103ee565b90565b61042790610412565b9052565b959391989796949290986101008701996000880161044891610405565b6020870161045591610162565b6040860161046291610162565b6060850161046f91610162565b6080840161047c9161041e565b60a0830161048991610162565b60c08201610496916101bf565b60e0016104a2916101bf565b565b346104de576104da6104bf6104ba3660046100fa565b61037a565b946104d19896989491949392936100c3565b9889988961042b565b0390f35b6100c9565b1c90565b60018060a01b031690565b61050290600861050793026104e3565b6104e7565b90565b9061051591546104f2565b90565b610525600260009061050a565b90565b61053c610537610541926103ee565b610273565b6103ee565b90565b61054d90610528565b90565b61055990610544565b90565b61056590610550565b9052565b919061057d9060006020850194019061055c565b565b346105af5761058f366004610152565b6105ab61059a610518565b6105a26100c3565b91829182610569565b0390f35b6100c9565b346105e2576105cc6105c73660046100fa565b611cb6565b6105d46100c3565b806105de81610119565b0390f35b6100c9565b909160608284031261061d5761061a61060384600085016100eb565b9361061181602086016100eb565b936040016100eb565b90565b6100ce565b346106535761064f61063e6106383660046105e7565b91612341565b6106466100c3565b9182918261016f565b0390f35b6100c9565b61066181610412565b0361066857565b600080fd5b9050359061067a82610658565b565b91906040838203126106a557806106996106a292600086016100eb565b9360200161066d565b90565b6100ce565b346106db576106d76106c66106c036600461067c565b90612357565b6106ce6100c3565b9182918261016f565b0390f35b6100c9565b600080fd5b6106f6906106f16123f4565b610b8f565b6106fe61245a565b565b90565b90565b61071a61071561071f92610703565b610273565b6103ee565b90565b61072b90610706565b90565b61073790610544565b90565b60209181520190565b60007f41756374696f6e20646f6573206e6f742065786973742e000000000000000000910152565b610778601760209261073a565b61078181610743565b0190565b61079b906020810190600081830391015261076b565b90565b156107a557565b6107ad6100c3565b62461bcd60e51b8152806107c360048201610785565b0390fd5b60007f41756374696f6e20686173206e6f7420656e646564207965742e000000000000910152565b6107fc601a60209261073a565b610805816107c7565b0190565b61081f90602081019060008183039101526107ef565b90565b1561082957565b6108316100c3565b62461bcd60e51b81528061084760048201610809565b0390fd5b60207f6d2e000000000000000000000000000000000000000000000000000000000000917f4f6e6c79207468652068696768657374206269646465722063616e20636c616960008201520152565b6108a6602260409261073a565b6108af8161084b565b0190565b6108c99060208101906000818303910152610899565b90565b156108d357565b6108db6100c3565b62461bcd60e51b8152806108f1600482016108b3565b0390fd5b60207f696f6e2e00000000000000000000000000000000000000000000000000000000917f4e6f2062696473207765726520706c61636564206f6e2074686973206175637460008201520152565b610950602460409261073a565b610959816108f5565b0190565b6109739060208101906000818303910152610943565b90565b1561097d57565b6109856100c3565b62461bcd60e51b81528061099b6004820161095d565b0390fd5b60007f4e46542068617320616c7265616479206265656e20636c61696d65642e000000910152565b6109d4601d60209261073a565b6109dd8161099f565b0190565b6109f790602081019060008183039101526109c7565b90565b15610a0157565b610a096100c3565b62461bcd60e51b815280610a1f600482016109e1565b0390fd5b60081b90565b90610a3661ff0091610a23565b9181191691161790565b610a49906101ba565b90565b90565b90610a64610a5f610a6b92610a40565b610a4c565b8254610a29565b9055565b610a7b610a80916102aa565b6104e7565b90565b610a8d9054610a6f565b90565b610a9990610544565b90565b600080fd5b601f801991011690565b634e487b7160e01b600052604160045260246000fd5b90610acb90610aa1565b810190811067ffffffffffffffff821117610ae557604052565b610aab565b60e01b90565b6000910312610afb57565b6100ce565b604090610b2a610b319496959396610b206060840198600085019061041e565b602083019061041e565b0190610162565b565b610b3b6100c3565b3d6000823e3d90fd5b610b4d90610544565b90565b610b86610b8d94610b7c606094989795610b72608086019a6000870190610162565b6020850190610162565b604083019061041e565b019061041e565b565b610ba3610b9e60038390610292565b610700565b90610bd5610bb3600084016102cf565b610bce610bc8610bc36000610722565b610412565b9161072e565b141561079e565b610be9610be460068401610346565b610822565b610c1033610c0a610c04610bff6004870161031f565b610412565b91610412565b146108cc565b610c41610c1f6004840161031f565b610c3a610c34610c2f6000610722565b610412565b91610412565b1415610976565b610c5e610c59610c536006850161036d565b156101ba565b6109fa565b610c6c600160068401610a4f565b610c7e610c796002610a83565b610550565b906323b872dd610c8d30610a90565b3393610c9b600387016102f3565b92813b15610dc8576000610cc291610ccd8296610cb66100c3565b998a9788968795610aea565b855260048501610b00565b03925af1908115610dc357610d5092600392610d96575b5080610cf26004860161031f565b610cfd8487016102f3565b91610d46610d34610d2e7f92ffae31901780890e35bdc724fedb7601577492b5d4e3df85f785de59d737ab93610276565b93610b44565b93610d3d6100c3565b9182918261016f565b0390a392016102f3565b610d5930610a90565b91610d91337fb39a1403de35be85fc823ae3762b8d3c220417c7b6ca54c5eacbfbfd551a0ab294610d886100c3565b94859485610b50565b0390a1565b610db69060003d8111610dbc575b610dae8183610ac1565b810190610af0565b38610ce4565b503d610da4565b610b33565b610a9c565b610dd6906106e5565b565b600090565b90565b610df4610def610df992610ddd565b610273565b6100d3565b90565b634e487b7160e01b600052601160045260246000fd5b610e21610e27919392936100d3565b926100d3565b8203918211610e3257565b610dfc565b610e3f610dd8565b50610e5d610e4d60016102f3565b610e576001610de0565b90610e12565b90565b600090565b90610e7791610e726123f4565b610f32565b90610e8061245a565b565b90610e8c90610b44565b600052602052604060002090565b610eae610ea9610eb392610703565b610273565b6100d3565b90565b60001b90565b90610ec960001991610eb6565b9181191691161790565b90565b90610eeb610ee6610ef292610276565b610ed3565b8254610ebc565b9055565b610eff90610528565b90565b610f0b90610ef6565b90565b916020610f30929493610f2960408201966000830190610162565b0190610162565b565b50610f47610f4260038390610292565b610700565b610f5d610f58600783013390610e82565b6102f3565b9081610f72610f6c6000610e9a565b916100d3565b11610f80575b505050600190565b610fa0610f8d6000610e9a565b610f9b600784013390610e82565b610ed6565b610fca6000808080610fb9610fb433610f02565b61072e565b879082821561103b575bf1156101ba565b61101c5750339091610ffc7fdf273cb619d95419a9cd0ec88123a0538c85064229baa6363788f743fff90deb92610b44565b926110116110086100c3565b92839283610f0e565b0390a2388080610f78565b90611036925060076110319192013390610e82565b610ed6565b600090565b506108fc610fc3565b61105590611050610e60565b610e65565b90565b611069906110646123f4565b6112cb565b61107161245a565b565b60207f6374696f6e000000000000000000000000000000000000000000000000000000917f4f6e6c79207468652073656c6c65722063616e20656e6420746865697220617560008201520152565b6110ce602560409261073a565b6110d781611073565b0190565b6110f190602081019060008183039101526110c1565b90565b156110fb57565b6111036100c3565b62461bcd60e51b815280611119600482016110db565b0390fd5b60007f41756374696f6e206e6f742079657420656e6465642e00000000000000000000910152565b611152601660209261073a565b61115b8161111d565b0190565b6111759060208101906000818303910152611145565b90565b1561117f57565b6111876100c3565b62461bcd60e51b81528061119d6004820161115f565b0390fd5b60007f5468652061756374696f6e2068617320616c726561647920656e646564000000910152565b6111d6601d60209261073a565b6111df816111a1565b0190565b6111f990602081019060008183039101526111c9565b90565b1561120357565b61120b6100c3565b62461bcd60e51b815280611221600482016111e3565b0390fd5b9061123160ff91610eb6565b9181191691161790565b9061125061124b61125792610a40565b610a4c565b8254611225565b9055565b60409061128561128c949695939661127b6060840198600085019061041e565b6020830190610162565b0190610162565b565b906112989061072e565b600052602052604060002090565b6112b56112bb919392936100d3565b926100d3565b82018092116112c657565b610dfc565b6112df6112da60038390610292565b610700565b90611307336113016112fb6112f6600087016102cf565b61072e565b91610412565b146110f4565b61132f4261132861132261131d600187016102f3565b6100d3565b916100d3565b1015611178565b61134c61134761134160068501610346565b156101ba565b6111fc565b61135a60016006840161123b565b6113666004830161031f565b90611373600584016102f3565b90916113ab7fc358e8e3f205b5e7453abd5cbac388ca4552b887b69001bc972b88610c749035936113a26100c3565b9384938461125b565b0390a16113ba600582016102f3565b6113cd6113c76000610e9a565b916100d3565b116113d6575b50565b806114126114036113ec600561141895016102f3565b926113fd60006007830192016102cf565b9061128e565b9161140d836102f3565b6112a6565b90610ed6565b386113d3565b61142790611058565b565b61143a906114356123f4565b611762565b61144261245a565b565b60007f41756374696f6e20646f6573206e6f7420657869737400000000000000000000910152565b611479601660209261073a565b61148281611444565b0190565b61149c906020810190600081830391015261146c565b90565b156114a657565b6114ae6100c3565b62461bcd60e51b8152806114c460048201611486565b0390fd5b60007f41756374696f6e20616c726561647920656e6465642e00000000000000000000910152565b6114fd601660209261073a565b611506816114c8565b0190565b61152090602081019060008183039101526114f0565b90565b1561152a57565b6115326100c3565b62461bcd60e51b8152806115486004820161150a565b0390fd5b60007f546865726520697320616c7265616479206120686967686572206269642e0000910152565b611581601e60209261073a565b61158a8161154c565b0190565b6115a49060208101906000818303910152611574565b90565b156115ae57565b6115b66100c3565b62461bcd60e51b8152806115cc6004820161158e565b0390fd5b60207f7274696e67206269640000000000000000000000000000000000000000000000917f42696473206d75737420626520686967686572207468616e207468652073746160008201520152565b61162b602960409261073a565b611634816115d0565b0190565b61164e906020810190600081830391015261161e565b90565b1561165857565b6116606100c3565b62461bcd60e51b81528061167660048201611638565b0390fd5b60207f756374696f6e0000000000000000000000000000000000000000000000000000917f53656c6c65722063616e6e6f7420626964206f6e207468656972206f776e206160008201520152565b6116d5602660409261073a565b6116de8161167a565b0190565b6116f890602081019060008183039101526116c8565b90565b1561170257565b61170a6100c3565b62461bcd60e51b815280611720600482016116e2565b0390fd5b9061173560018060a01b0391610eb6565b9181191691161790565b90565b9061175761175261175e92610b44565b61173f565b8254611724565b9055565b61188561177961177460038490610292565b610700565b6117aa611788600083016102cf565b6117a361179d6117986000610722565b610412565b9161072e565b141561149f565b6117d2426117cb6117c56117c0600186016102f3565b6100d3565b916100d3565b1115611523565b6117f9346117f36117ed6117e8600586016102f3565b6100d3565b916100d3565b116115a7565b6118213461181a61181461180f600286016102f3565b6100d3565b916100d3565b1015611651565b6118493361184261183c611837600086016102cf565b61072e565b91610412565b14156116fb565b611855600582016102f3565b6118686118626000610e9a565b916100d3565b036118c5575b61187b3360048301611742565b6005349101610ed6565b33903490916118c07fdafc4a123c6bb3b49dd38a0cba299808581a0126a37248a5f1102d5e5fa06337936118b76100c3565b9384938461125b565b0390a1565b6119056118d4600583016102f3565b6118ff6118f0600785016118ea6004870161031f565b90610e82565b916118fa836102f3565b6112a6565b90610ed6565b61186e565b61191390611429565b565b611926906119216123f4565b611a84565b61192e61245a565b565b60007f4f6e6c79207468652073656c6c65722063616e207265636c61696d2e00000000910152565b611965601c60209261073a565b61196e81611930565b0190565b6119889060208101906000818303910152611958565b90565b1561199257565b61199a6100c3565b62461bcd60e51b8152806119b060048201611972565b0390fd5b60407f652068696768657374206269646465722e000000000000000000000000000000917f41756374696f6e20726563656976656420626964732e2055736520636c61696d60008201527f576f6e41756374696f6e20696e737465616420696620796f752061726520746860208201520152565b611a35605160609261073a565b611a3e816119b4565b0190565b611a589060208101906000818303910152611a28565b90565b15611a6257565b611a6a6100c3565b62461bcd60e51b815280611a8060048201611a42565b0390fd5b611a98611a9360038390610292565b610700565b90611aca611aa8600084016102cf565b611ac3611abd611ab86000610722565b610412565b9161072e565b141561079e565b611ade611ad960068401610346565b610822565b611b0533611aff611af9611af4600087016102cf565b61072e565b91610412565b1461198b565b611b35611b146004840161031f565b611b2f611b29611b246000610722565b610412565b91610412565b14611a5b565b611b52611b4d611b476006850161036d565b156101ba565b6109fa565b611b60600160068401610a4f565b611b72611b6d6002610a83565b610550565b906323b872dd611b8130610a90565b3393611b8f600387016102f3565b92813b15611cb1576000611bb691611bc18296611baa6100c3565b998a9788968795610aea565b855260048501610b00565b03925af1908115611cac57611c3992600392611c7f575b508033611be68487016102f3565b91611c2f611c1d611c177fb6080646ad6872baa346ca775fe5cfcc0bb6397346f00aafc25f3df2a9b3483793610276565b93610b44565b93611c266100c3565b9182918261016f565b0390a392016102f3565b611c4230610a90565b91611c7a337fb39a1403de35be85fc823ae3762b8d3c220417c7b6ca54c5eacbfbfd551a0ab294611c716100c3565b94859485610b50565b0390a1565b611c9f9060003d8111611ca5575b611c978183610ac1565b810190610af0565b38611bd8565b503d611c8d565b610b33565b610a9c565b611cbf90611915565b565b90611cd5939291611cd06123f4565b611fcb565b90611cde61245a565b565b611ce9816101ba565b03611cf057565b600080fd5b90505190611d0282611ce0565b565b90602082820312611d1e57611d1b91600001611cf5565b90565b6100ce565b916020611d45929493611d3e6040820196600083019061041e565b0190610162565b565b60207f6b656d6f6e000000000000000000000000000000000000000000000000000000917f596f7520617265206e6f7420746865206f776e6572206f66207468697320506f60008201520152565b611da2602560409261073a565b611dab81611d47565b0190565b611dc59060208101906000818303910152611d95565b90565b15611dcf57565b611dd76100c3565b62461bcd60e51b815280611ded60048201611daf565b0390fd5b60207f6e20300000000000000000000000000000000000000000000000000000000000917f42696464696e672074696d65206d75737420626520677265617465722074686160008201520152565b611e4c602360409261073a565b611e5581611df1565b0190565b611e6f9060208101906000818303910152611e3f565b90565b15611e7957565b611e816100c3565b62461bcd60e51b815280611e9760048201611e59565b0390fd5b15611ea257565b600080fd5b90505190611eb482610658565b565b90602082820312611ed057611ecd91600001611ea7565b90565b6100ce565b60207f20627920746865206f776e657220666f72207468697320746f6b656e00000000917f41756374696f6e206d616e61676572206d75737420626520617070726f76656460008201520152565b611f30603c60409261073a565b611f3981611ed5565b0190565b611f539060208101906000818303910152611f23565b90565b15611f5d57565b611f656100c3565b62461bcd60e51b815280611f7b60048201611f3d565b0390fd5b611f88906100d3565b6000198114611f975760010190565b610dfc565b611fa590610ef6565b90565b90565b90611fc0611fbb611fc792611f9c565b611fa8565b8254611724565b9055565b50611fde611fd96002610a83565b610550565b602063e327a6af913390612004879461200f611ff86100c3565b96879586948594610aea565b845260048401611d23565b03915afa801561233c5761202b9160009161230e575b50611dc8565b6120488161204261203c6000610e9a565b916100d3565b11611e72565b61205a6120556002610a83565b610550565b602063e327a6af913390612080879461208b6120746100c3565b96879586948594610aea565b845260048401611d23565b03915afa8015612309576120a7916000916122db575b50611e9b565b6120e860206120be6120b96002610a83565b610550565b63081812fc906120dd87926120d16100c3565b95869485938493610aea565b83526004830161016f565b03915afa80156122d65761211f916000916122a8575b5061211961211361210e30610a90565b610412565b91610412565b14611f56565b61213161212c6002610a83565b610550565b6323b872dd3361214030610a90565b928692813b156122a357600061216991612174829661215d6100c3565b98899788968795610aea565b855260048501610b00565b03925af1801561229e57612271575b5061218e60016102f3565b6121a161219a82611f7f565b6001610ed6565b926121e26121d96121b133610f02565b936121d36121c96121c460038a90610292565b610700565b9560008701611fab565b426112a6565b60018401610ed6565b6121ef8360028401610ed6565b6121fc8160038401610ed6565b61220a600060068401610a4f565b836122196001339394016102f3565b9361225661225061224a7f05f9bf100dd0ca9f37f08e0526690286d357ed7d6c5a4ac29730440b6e2dfd6294610276565b94610b44565b94610276565b9461226b6122626100c3565b92839283610f0e565b0390a490565b6122919060003d8111612297575b6122898183610ac1565b810190610af0565b38612183565b503d61227f565b610b33565b610a9c565b6122c9915060203d81116122cf575b6122c18183610ac1565b810190611eb6565b386120fe565b503d6122b7565b610b33565b6122fc915060203d8111612302575b6122f48183610ac1565b810190611d04565b386120a1565b503d6122ea565b610b33565b61232f915060203d8111612335575b6123278183610ac1565b810190611d04565b38612025565b503d61231d565b610b33565b90612354929161234f610dd8565b611cc1565b90565b61235f610dd8565b50612377600061237160038490610292565b016102cf565b61239261238c6123876000610722565b610412565b9161072e565b146123b9576123b69160076123ab6123b1936003610292565b01610e82565b6102f3565b90565b50506123c56000610e9a565b90565b90565b6123df6123da6123e4926123c8565b610273565b6100d3565b90565b6123f160026123cb565b90565b6123fe60006102f3565b61241761241161240c6123e7565b6100d3565b916100d3565b146124305761242e6124276123e7565b6000610ed6565b565b6000633ee5aeb560e01b81528061244960048201610119565b0390fd5b6124576001610de0565b90565b61246c61246561244d565b6000610ed6565b56fea26469706673582212201366393e8eb8a579e0b5ec9cdc768d1e7bc8ed91975bf828bd9da5bbec3d1db964736f6c634300081c0033",
  "linkReferences": {},
  "deployedLinkReferences": {}
}