{
  "_format": "hh-sol-artifact-1",
  "contractName": "PokemonTest",
  "sourceName": "contracts/PokemonTest.sol",
  "abi": [
    {
      "inputs": [],
      "stateMutability": "nonpayable",
      "type": "constructor"
    },
    {
      "inputs": [],
      "name": "ERC721EnumerableForbiddenBatchMint",
      "type": "error"
    },
    {
      "inputs": [
        {
          "internalType": "address",
          "name": "sender",
          "type": "address"
        },
        {
          "internalType": "uint256",
          "name": "tokenId",
          "type": "uint256"
        },
        {
          "internalType": "address",
          "name": "owner",
          "type": "address"
        }
      ],
      "name": "ERC721IncorrectOwner",
      "type": "error"
    },
    {
      "inputs": [
        {
          "internalType": "address",
          "name": "operator",
          "type": "address"
        },
        {
          "internalType": "uint256",
          "name": "tokenId",
          "type": "uint256"
        }
      ],
      "name": "ERC721InsufficientApproval",
      "type": "error"
    },
    {
      "inputs": [
        {
          "internalType": "address",
          "name": "approver",
          "type": "address"
        }
      ],
      "name": "ERC721InvalidApprover",
      "type": "error"
    },
    {
      "inputs": [
        {
          "internalType": "address",
          "name": "operator",
          "type": "address"
        }
      ],
      "name": "ERC721InvalidOperator",
      "type": "error"
    },
    {
      "inputs": [
        {
          "internalType": "address",
          "name": "owner",
          "type": "address"
        }
      ],
      "name": "ERC721InvalidOwner",
      "type": "error"
    },
    {
      "inputs": [
        {
          "internalType": "address",
          "name": "receiver",
          "type": "address"
        }
      ],
      "name": "ERC721InvalidReceiver",
      "type": "error"
    },
    {
      "inputs": [
        {
          "internalType": "address",
          "name": "sender",
          "type": "address"
        }
      ],
      "name": "ERC721InvalidSender",
      "type": "error"
    },
    {
      "inputs": [
        {
          "internalType": "uint256",
          "name": "tokenId",
          "type": "uint256"
        }
      ],
      "name": "ERC721NonexistentToken",
      "type": "error"
    },
    {
      "inputs": [
        {
          "internalType": "address",
          "name": "owner",
          "type": "address"
        },
        {
          "internalType": "uint256",
          "name": "index",
          "type": "uint256"
        }
      ],
      "name": "ERC721OutOfBoundsIndex",
      "type": "error"
    },
    {
      "inputs": [
        {
          "internalType": "address",
          "name": "owner",
          "type": "address"
        }
      ],
      "name": "OwnableInvalidOwner",
      "type": "error"
    },
    {
      "inputs": [
        {
          "internalType": "address",
          "name": "account",
          "type": "address"
        }
      ],
      "name": "OwnableUnauthorizedAccount",
      "type": "error"
    },
    {
      "anonymous": false,
      "inputs": [
        {
          "indexed": true,
          "internalType": "address",
          "name": "owner",
          "type": "address"
        },
        {
          "indexed": true,
          "internalType": "address",
          "name": "approved",
          "type": "address"
        },
        {
          "indexed": true,
          "internalType": "uint256",
          "name": "tokenId",
          "type": "uint256"
        }
      ],
      "name": "Approval",
      "type": "event"
    },
    {
      "anonymous": false,
      "inputs": [
        {
          "indexed": true,
          "internalType": "address",
          "name": "owner",
          "type": "address"
        },
        {
          "indexed": true,
          "internalType": "address",
          "name": "operator",
          "type": "address"
        },
        {
          "indexed": false,
          "internalType": "bool",
          "name": "approved",
          "type": "bool"
        }
      ],
      "name": "ApprovalForAll",
      "type": "event"
    },
    {
      "anonymous": false,
      "inputs": [
        {
          "indexed": true,
          "internalType": "address",
          "name": "previousOwner",
          "type": "address"
        },
        {
          "indexed": true,
          "internalType": "address",
          "name": "newOwner",
          "type": "address"
        }
      ],
      "name": "OwnershipTransferred",
      "type": "event"
    },
    {
      "anonymous": false,
      "inputs": [
        {
          "indexed": true,
          "internalType": "address",
          "name": "from",
          "type": "address"
        },
        {
          "indexed": true,
          "internalType": "address",
          "name": "to",
          "type": "address"
        },
        {
          "indexed": true,
          "internalType": "uint256",
          "name": "tokenId",
          "type": "uint256"
        }
      ],
      "name": "Transfer",
      "type": "event"
    },
    {
      "inputs": [
        {
          "internalType": "address",
          "name": "to",
          "type": "address"
        },
        {
          "internalType": "uint256",
          "name": "tokenId",
          "type": "uint256"
        }
      ],
      "name": "approve",
      "outputs": [],
      "stateMutability": "nonpayable",
      "type": "function"
    },
    {
      "inputs": [
        {
          "internalType": "address",
          "name": "owner",
          "type": "address"
        }
      ],
      "name": "balanceOf",
      "outputs": [
        {
          "internalType": "uint256",
          "name": "",
          "type": "uint256"
        }
      ],
      "stateMutability": "view",
      "type": "function"
    },
    {
      "inputs": [
        {
          "internalType": "uint256",
          "name": "tokenId",
          "type": "uint256"
        }
      ],
      "name": "burn",
      "outputs": [],
      "stateMutability": "nonpayable",
      "type": "function"
    },
    {
      "inputs": [
        {
          "internalType": "uint256",
          "name": "tokenId",
          "type": "uint256"
        }
      ],
      "name": "getApproved",
      "outputs": [
        {
          "internalType": "address",
          "name": "",
          "type": "address"
        }
      ],
      "stateMutability": "view",
      "type": "function"
    },
    {
      "inputs": [
        {
          "internalType": "uint256",
          "name": "tokenId",
          "type": "uint256"
        }
      ],
      "name": "getPokemonData",
      "outputs": [
        {
          "components": [
            {
              "internalType": "string",
              "name": "name",
              "type": "string"
            },
            {
              "internalType": "string",
              "name": "pokemonType",
              "type": "string"
            },
            {
              "internalType": "uint256",
              "name": "hp",
              "type": "uint256"
            },
            {
              "internalType": "string",
              "name": "rarity",
              "type": "string"
            }
          ],
          "internalType": "struct PokemonTest.Pokemon",
          "name": "",
          "type": "tuple"
        }
      ],
      "stateMutability": "view",
      "type": "function"
    },
    {
      "inputs": [
        {
          "internalType": "address",
          "name": "owner",
          "type": "address"
        },
        {
          "internalType": "address",
          "name": "operator",
          "type": "address"
        }
      ],
      "name": "isApprovedForAll",
      "outputs": [
        {
          "internalType": "bool",
          "name": "",
          "type": "bool"
        }
      ],
      "stateMutability": "view",
      "type": "function"
    },
    {
      "inputs": [
        {
          "internalType": "address",
          "name": "potentialOwner",
          "type": "address"
        },
        {
          "internalType": "uint256",
          "name": "pokemonId",
          "type": "uint256"
        }
      ],
      "name": "isOwner",
      "outputs": [
        {
          "internalType": "bool",
          "name": "",
          "type": "bool"
        }
      ],
      "stateMutability": "view",
      "type": "function"
    },
    {
      "inputs": [
        {
          "internalType": "address",
          "name": "to",
          "type": "address"
        }
      ],
      "name": "mint",
      "outputs": [
        {
          "internalType": "uint256",
          "name": "",
          "type": "uint256"
        }
      ],
      "stateMutability": "nonpayable",
      "type": "function"
    },
    {
      "inputs": [],
      "name": "name",
      "outputs": [
        {
          "internalType": "string",
          "name": "",
          "type": "string"
        }
      ],
      "stateMutability": "view",
      "type": "function"
    },
    {
      "inputs": [],
      "name": "owner",
      "outputs": [
        {
          "internalType": "address",
          "name": "",
          "type": "address"
        }
      ],
      "stateMutability": "view",
      "type": "function"
    },
    {
      "inputs": [
        {
          "internalType": "uint256",
          "name": "tokenId",
          "type": "uint256"
        }
      ],
      "name": "ownerOf",
      "outputs": [
        {
          "internalType": "address",
          "name": "",
          "type": "address"
        }
      ],
      "stateMutability": "view",
      "type": "function"
    },
    {
      "inputs": [
        {
          "internalType": "uint256",
          "name": "",
          "type": "uint256"
        }
      ],
      "name": "partialProbability",
      "outputs": [
        {
          "internalType": "uint256",
          "name": "",
          "type": "uint256"
        }
      ],
      "stateMutability": "view",
      "type": "function"
    },
    {
      "inputs": [
        {
          "internalType": "uint256",
          "name": "",
          "type": "uint256"
        }
      ],
      "name": "possiblePokemon",
      "outputs": [
        {
          "internalType": "string",
          "name": "name",
          "type": "string"
        },
        {
          "internalType": "string",
          "name": "pokemonType",
          "type": "string"
        },
        {
          "internalType": "uint256",
          "name": "probability",
          "type": "uint256"
        }
      ],
      "stateMutability": "view",
      "type": "function"
    },
    {
      "inputs": [
        {
          "internalType": "uint256",
          "name": "",
          "type": "uint256"
        }
      ],
      "name": "possibleRarities",
      "outputs": [
        {
          "internalType": "string",
          "name": "rarity",
          "type": "string"
        },
        {
          "internalType": "uint256",
          "name": "probability",
          "type": "uint256"
        }
      ],
      "stateMutability": "view",
      "type": "function"
    },
    {
      "inputs": [],
      "name": "renounceOwnership",
      "outputs": [],
      "stateMutability": "nonpayable",
      "type": "function"
    },
    {
      "inputs": [
        {
          "internalType": "address",
          "name": "from",
          "type": "address"
        },
        {
          "internalType": "address",
          "name": "to",
          "type": "address"
        },
        {
          "internalType": "uint256",
          "name": "tokenId",
          "type": "uint256"
        }
      ],
      "name": "safeTransferFrom",
      "outputs": [],
      "stateMutability": "nonpayable",
      "type": "function"
    },
    {
      "inputs": [
        {
          "internalType": "address",
          "name": "from",
          "type": "address"
        },
        {
          "internalType": "address",
          "name": "to",
          "type": "address"
        },
        {
          "internalType": "uint256",
          "name": "tokenId",
          "type": "uint256"
        },
        {
          "internalType": "bytes",
          "name": "data",
          "type": "bytes"
        }
      ],
      "name": "safeTransferFrom",
      "outputs": [],
      "stateMutability": "nonpayable",
      "type": "function"
    },
    {
      "inputs": [
        {
          "internalType": "address",
          "name": "operator",
          "type": "address"
        },
        {
          "internalType": "bool",
          "name": "approved",
          "type": "bool"
        }
      ],
      "name": "setApprovalForAll",
      "outputs": [],
      "stateMutability": "nonpayable",
      "type": "function"
    },
    {
      "inputs": [
        {
          "internalType": "string",
          "name": "pokemonName",
          "type": "string"
        },
        {
          "internalType": "string",
          "name": "uri",
          "type": "string"
        }
      ],
      "name": "setPokemonImageURI",
      "outputs": [],
      "stateMutability": "nonpayable",
      "type": "function"
    },
    {
      "inputs": [
        {
          "internalType": "bytes4",
          "name": "interfaceId",
          "type": "bytes4"
        }
      ],
      "name": "supportsInterface",
      "outputs": [
        {
          "internalType": "bool",
          "name": "",
          "type": "bool"
        }
      ],
      "stateMutability": "view",
      "type": "function"
    },
    {
      "inputs": [],
      "name": "symbol",
      "outputs": [
        {
          "internalType": "string",
          "name": "",
          "type": "string"
        }
      ],
      "stateMutability": "view",
      "type": "function"
    },
    {
      "inputs": [
        {
          "internalType": "uint256",
          "name": "index",
          "type": "uint256"
        }
      ],
      "name": "tokenByIndex",
      "outputs": [
        {
          "internalType": "uint256",
          "name": "",
          "type": "uint256"
        }
      ],
      "stateMutability": "view",
      "type": "function"
    },
    {
      "inputs": [
        {
          "internalType": "address",
          "name": "owner",
          "type": "address"
        },
        {
          "internalType": "uint256",
          "name": "index",
          "type": "uint256"
        }
      ],
      "name": "tokenOfOwnerByIndex",
      "outputs": [
        {
          "internalType": "uint256",
          "name": "",
          "type": "uint256"
        }
      ],
      "stateMutability": "view",
      "type": "function"
    },
    {
      "inputs": [
        {
          "internalType": "uint256",
          "name": "tokenId",
          "type": "uint256"
        }
      ],
      "name": "tokenURI",
      "outputs": [
        {
          "internalType": "string",
          "name": "",
          "type": "string"
        }
      ],
      "stateMutability": "view",
      "type": "function"
    },
    {
      "inputs": [],
      "name": "totalSupply",
      "outputs": [
        {
          "internalType": "uint256",
          "name": "",
          "type": "uint256"
        }
      ],
      "stateMutability": "view",
      "type": "function"
    },
    {
      "inputs": [
        {
          "internalType": "address",
          "name": "from",
          "type": "address"
        },
        {
          "internalType": "address",
          "name": "to",
          "type": "address"
        },
        {
          "internalType": "uint256",
          "name": "tokenId",
          "type": "uint256"
        }
      ],
      "name": "transferFrom",
      "outputs": [],
      "stateMutability": "nonpayable",
      "type": "function"
    },
    {
      "inputs": [
        {
          "internalType": "address",
          "name": "newOwner",
          "type": "address"
        }
      ],
      "name": "transferOwnership",
      "outputs": [],
      "stateMutability": "nonpayable",
      "type": "function"
    }
  ],
  "bytecode": "0x60806040523461002757610011611410565b61001961002c565b6138f4611c7f82396138f490f35b610032565b60405190565b600080fd5b601f801991011690565b634e487b7160e01b600052604160045260246000fd5b9061006190610037565b810190811060018060401b0382111761007957604052565b610041565b9061009161008a61002c565b9283610057565b565b60018060401b0381116100af576100ab602091610037565b0190565b610041565b906100c66100c183610093565b61007e565b918252565b60007f506f6b656d6f6e54657374000000000000000000000000000000000000000000910152565b6100fd600b6100b4565b9061010a602083016100cb565b565b6101146100f3565b90565b60007f504b4d4e00000000000000000000000000000000000000000000000000000000910152565b61014960046100b4565b9061015660208301610117565b565b61016061013f565b90565b60001b90565b9061017660001991610163565b9181191691161790565b90565b90565b90565b61019d6101986101a292610180565b610186565b610183565b90565b90565b906101bd6101b86101c492610189565b6101a5565b8254610169565b9055565b60018060401b0381116101db5760200290565b610041565b6101ec6101f1916101c8565b61007e565b90565b6101fe606061007e565b90565b60007f50696b6163687500000000000000000000000000000000000000000000000000910152565b61023360076100b4565b9061024060208301610201565b565b61024a610229565b90565b52565b60007f456c656374726963000000000000000000000000000000000000000000000000910152565b61028260086100b4565b9061028f60208301610250565b565b610299610278565b90565b90565b6102b36102ae6102b89261029c565b610186565b610183565b90565b906102c590610183565b9052565b52565b60007f43686172697a6172640000000000000000000000000000000000000000000000910152565b6102fe60096100b4565b9061030b602083016102cc565b565b6103156102f4565b90565b60007f4669726500000000000000000000000000000000000000000000000000000000910152565b61034a60046100b4565b9061035760208301610318565b565b610361610340565b90565b60007f42756c6261736175720000000000000000000000000000000000000000000000910152565b61039660096100b4565b906103a360208301610364565b565b6103ad61038c565b90565b60007f4772617373000000000000000000000000000000000000000000000000000000910152565b6103e260056100b4565b906103ef602083016103b0565b565b6103f96103d8565b90565b60007f5371756972746c65000000000000000000000000000000000000000000000000910152565b61042e60086100b4565b9061043b602083016103fc565b565b610445610424565b90565b60007f5761746572000000000000000000000000000000000000000000000000000000910152565b61047a60056100b4565b9061048760208301610448565b565b610491610470565b90565b60007f4a6967676c797075666600000000000000000000000000000000000000000000910152565b6104c6600a6100b4565b906104d360208301610494565b565b6104dd6104bc565b90565b60007f4e6f726d616c0000000000000000000000000000000000000000000000000000910152565b61051260066100b4565b9061051f602083016104e0565b565b610529610508565b90565b60007f4d6163686f700000000000000000000000000000000000000000000000000000910152565b61055e60066100b4565b9061056b6020830161052c565b565b610575610554565b90565b60007f4669676874696e67000000000000000000000000000000000000000000000000910152565b6105aa60086100b4565b906105b760208301610578565b565b6105c16105a0565b90565b60007f47656f6475646500000000000000000000000000000000000000000000000000910152565b6105f660076100b4565b90610603602083016105c4565b565b61060d6105ec565b90565b60007f526f636b00000000000000000000000000000000000000000000000000000000910152565b61064260046100b4565b9061064f60208301610610565b565b610659610638565b90565b60007f47656e6761720000000000000000000000000000000000000000000000000000910152565b61068e60066100b4565b9061069b6020830161065c565b565b6106a5610684565b90565b60007f47686f7374000000000000000000000000000000000000000000000000000000910152565b6106da60056100b4565b906106e7602083016106a8565b565b6106f16106d0565b90565b60007f447261676f6e6974650000000000000000000000000000000000000000000000910152565b61072660096100b4565b90610733602083016106f4565b565b61073d61071c565b90565b60007f447261676f6e0000000000000000000000000000000000000000000000000000910152565b61077260066100b4565b9061077f60208301610740565b565b610789610768565b90565b60007f4565766565000000000000000000000000000000000000000000000000000000910152565b6107be60056100b4565b906107cb6020830161078c565b565b6107d56107b4565b90565b634e487b7160e01b600052600060045260246000fd5b90565b50600a90565b634e487b7160e01b600052601160045260246000fd5b61081c61082291939293610183565b92610183565b9161082e838202610183565b92818404149015171561083d57565b6107f7565b61084d90600361080d565b90565b90565b634e487b7160e01b600052602260045260246000fd5b9060016002830492168015610889575b602083101461088457565b610853565b91607f1691610879565b600052602060002090565b1c90565b906108b6906000199060200360080261089e565b8154169055565b1b90565b919060086108dd9102916108d7600019846108bd565b926108bd565b9181191691161790565b6108fb6108f661090092610183565b610186565b610183565b90565b9190610919610914610921936108e7565b6101a5565b9083546108c1565b9055565b600090565b61093c91610936610925565b91610903565b565b5b81811061094a575050565b80610958600060019361092a565b0161093f565b9061096f906000199060080261089e565b191690565b8161097e9161095e565b906002021790565b9060009161099e61099682610893565b928354610974565b905555565b601f602091010490565b91929060208210600014610a0757601f84116001146109d7576109d1929350610974565b90555b5b565b50906109fd610a029360016109f46109ee85610893565b926109a3565b8201910161093e565b610986565b6109d4565b50610a3e8293610a18600194610893565b610a37610a24856109a3565b820192601f861680610a49575b506109a3565b019061093e565b6002021790556109d5565b610a55908886036108a2565b38610a31565b929091680100000000000000008211610abd57602011600014610aae5760208110600014610a9257610a8c91610974565b90555b5b565b60019160ff1916610aa284610893565b55600202019055610a8f565b60019150600202019055610a90565b610041565b908154610ace81610869565b90818311610af7575b818310610ae5575b50505050565b610aee936109ad565b38808080610adf565b610b0383838387610a5b565b610ad7565b6000610b1391610ac2565b565b90600003610b2857610b2690610b08565b565b6107d8565b60006002610b5492610b4183808301610b15565b610b4e8360018301610b15565b0161092a565b565b90600003610b6957610b6790610b2d565b565b6107d8565b5b818110610b7a575050565b80610b886000600393610b56565b01610b6f565b9091828110610b9d575b505050565b610bbb610bb5610baf610bc695610842565b92610842565b92610850565b918201910190610b6e565b388080610b98565b90680100000000000000008111610bf45781610bec610bf2936107f1565b90610b8e565b565b610041565b50600a90565b5190565b5190565b5190565b9190601f8111610c1b575b505050565b610c27610c4c93610893565b906020610c33846109a3565b83019310610c54575b610c45906109a3565b019061093e565b388080610c16565b9150610c4581929050610c3c565b90610c6c81610c07565b9060018060401b038211610d2c57610c8e82610c888554610869565b85610c0b565b602090601f8311600114610cc357918091610cb293600092610cb7575b5050610974565b90555b565b90915001513880610cab565b601f19831691610cd285610893565b9260005b818110610d1457509160029391856001969410610cfa575b50505002019055610cb5565b610d0a910151601f84169061095e565b9055388080610cee565b91936020600181928787015181550195019201610cd6565b610041565b90610d3b91610c62565b565b610d479051610183565b90565b90610d5f610d5a610d66926108e7565b6101a5565b8254610169565b9055565b90610db060406002610db694610d8f60008201610d8960008801610c03565b90610d31565b610da860018201610da260208801610c03565b90610d31565b019201610d3d565b90610d4a565b565b90610dc291610d6a565b565b610de9610de3610dd384610bf9565b93610dde8585610bce565b6107ee565b91610850565b6000915b838310610dfa5750505050565b6003602082610e13610e0d600195610bff565b86610db8565b01920192019190610ded565b90610e2991610dc4565b565b60018060401b038111610e3e5760200290565b610041565b610e4f610e5491610e2b565b61007e565b90565b610e61604061007e565b90565b60007f436f6d6d6f6e0000000000000000000000000000000000000000000000000000910152565b610e9660066100b4565b90610ea360208301610e64565b565b610ead610e8c565b90565b90565b610ec7610ec2610ecc92610eb0565b610186565b610183565b90565b52565b60007f556e636f6d6d6f6e000000000000000000000000000000000000000000000000910152565b610f0460086100b4565b90610f1160208301610ed2565b565b610f1b610efa565b90565b90565b610f35610f30610f3a92610f1e565b610186565b610183565b90565b60007f5261726500000000000000000000000000000000000000000000000000000000910152565b610f6f60046100b4565b90610f7c60208301610f3d565b565b610f86610f65565b90565b90565b610fa0610f9b610fa592610f89565b610186565b610183565b90565b60007f446f75626c652052617265000000000000000000000000000000000000000000910152565b610fda600b6100b4565b90610fe760208301610fa8565b565b610ff1610fd0565b90565b90565b61100b61100661101092610ff4565b610186565b610183565b90565b60007f556c747261205261726500000000000000000000000000000000000000000000910152565b611045600a6100b4565b9061105260208301611013565b565b61105c61103b565b90565b90565b61107661107161107b9261105f565b610186565b610183565b90565b60007f496c6c757374726174696f6e2052617265000000000000000000000000000000910152565b6110b060116100b4565b906110bd6020830161107e565b565b6110c76110a6565b90565b90565b6110e16110dc6110e6926110ca565b610186565b610183565b90565b60007f5370656369616c20496c6c757374726174696f6e205261726500000000000000910152565b61111b60196100b4565b90611128602083016110e9565b565b611132611111565b90565b90565b61114c61114761115192611135565b610186565b610183565b90565b60007f4879706572205261726500000000000000000000000000000000000000000000910152565b611186600a6100b4565b9061119360208301611154565b565b61119d61117c565b90565b90565b50600890565b6111b490600261080d565b90565b90565b600060016111d4926111ce83808301610b15565b0161092a565b565b906000036111e9576111e7906111ba565b565b6107d8565b5b8181106111fa575050565b8061120860006002936111d6565b016111ef565b909182811061121d575b505050565b61123b61123561122f611246956111a9565b926111a9565b926111b7565b9182019101906111ee565b388080611218565b90680100000000000000008111611274578161126c611272936111a3565b9061120e565b565b610041565b50600890565b5190565b906112b0602060016112b6946112a8600082016112a260008801610c03565b90610d31565b019201610d3d565b90610d4a565b565b906112c291611283565b565b6112e96112e36112d384611279565b936112de858561124e565b6111a0565b916111b7565b6000915b8383106112fa5750505050565b600260208261131361130d60019561127f565b866112b8565b019201920191906112ed565b90611329916112c4565b565b90565b61134261133d6113479261132b565b610186565b610183565b90565b60016113569101610183565b90565b634e487b7160e01b600052603260045260246000fd5b611378816107f1565b8210156113935761138a600391610850565b91020190600090565b611359565b60001c90565b90565b6113ad6113b291611398565b61139e565b90565b6113bf90546113a1565b90565b6113d16113d791939293610183565b92610183565b82018092116113e257565b6107f7565b6113f0816111a3565b82101561140b576114026002916111b7565b91020190600090565b611359565b61142a3361141c61010c565b611424610158565b91611a86565b6114366001600b6101a8565b61178a611443600a6101e0565b611496600a61148d6114846114566101f4565b9261146b611462610242565b6000860161024d565b61147f611476610291565b6020860161024d565b61029f565b604083016102bb565b600083016102c9565b6114e9600a6114e06114d76114a96101f4565b926114be6114b561030d565b6000860161024d565b6114d26114c9610359565b6020860161024d565b61029f565b604083016102bb565b602083016102c9565b61153c600a61153361152a6114fc6101f4565b926115116115086103a5565b6000860161024d565b61152561151c6103f1565b6020860161024d565b61029f565b604083016102bb565b604083016102c9565b61158f600a61158661157d61154f6101f4565b9261156461155b61043d565b6000860161024d565b61157861156f610489565b6020860161024d565b61029f565b604083016102bb565b606083016102c9565b6115e2600a6115d96115d06115a26101f4565b926115b76115ae6104d5565b6000860161024d565b6115cb6115c2610521565b6020860161024d565b61029f565b604083016102bb565b608083016102c9565b611635600a61162c6116236115f56101f4565b9261160a61160161056d565b6000860161024d565b61161e6116156105b9565b6020860161024d565b61029f565b604083016102bb565b60a083016102c9565b611688600a61167f6116766116486101f4565b9261165d611654610605565b6000860161024d565b611671611668610651565b6020860161024d565b61029f565b604083016102bb565b60c083016102c9565b6116db600a6116d26116c961169b6101f4565b926116b06116a761069d565b6000860161024d565b6116c46116bb6106e9565b6020860161024d565b61029f565b604083016102bb565b60e083016102c9565b61172f600a61172561171c6116ee6101f4565b926117036116fa610735565b6000860161024d565b61171761170e610781565b6020860161024d565b61029f565b604083016102bb565b61010083016102c9565b611783600a6117796117706117426101f4565b9261175761174e6107cd565b6000860161024d565b61176b611762610521565b6020860161024d565b61029f565b604083016102bb565b61012083016102c9565b6010610e1f565b6119966117976008610e43565b6117d660c86117cd6117c46117aa610e57565b926117bf6117b6610ea5565b6000860161024d565b610eb3565b602083016102bb565b60008301610ecf565b611815606461180c6118036117e9610e57565b926117fe6117f5610f13565b6000860161024d565b610f21565b602083016102bb565b60208301610ecf565b611854603261184b611842611828610e57565b9261183d611834610f7e565b6000860161024d565b610f8c565b602083016102bb565b60408301610ecf565b611893601961188a611881611867610e57565b9261187c611873610fe9565b6000860161024d565b610ff7565b602083016102bb565b60608301610ecf565b6118d2600f6118c96118c06118a6610e57565b926118bb6118b2611054565b6000860161024d565b611062565b602083016102bb565b60808301610ecf565b61191160066119086118ff6118e5610e57565b926118fa6118f16110bf565b6000860161024d565b6110cd565b602083016102bb565b60a08301610ecf565b611950600361194761193e611924610e57565b9261193961193061112a565b6000860161024d565b611138565b602083016102bb565b60c08301610ecf565b61198f600161198661197d611963610e57565b9261197861196f611195565b6000860161024d565b610189565b602083016102bb565b60e08301610ecf565b602e61131f565b6119a0600061132e565b906119ab600061132e565b915b826119c96119c36119be60106107f1565b610183565b91610183565b1015611a00576119f46119fa916119ee60026119e76010889061136f565b50016113b5565b906113c2565b9261134a565b916119ad565b611a0d919250600c610d4a565b611a17600061132e565b90611a22600061132e565b915b82611a40611a3a611a35602e6111a3565b610183565b91610183565b1015611a7757611a6b611a7191611a656001611a5e602e88906113e7565b50016113b5565b906113c2565b9261134a565b91611a24565b611a84919250600d610d4a565b565b90611a919291611a93565b565b90611a9e9291611b02565b565b60018060a01b031690565b611abf611aba611ac49261132b565b610186565b611aa0565b90565b611ad090611aab565b90565b611adc90611aa0565b90565b611ae890611ad3565b9052565b9190611b0090600060208501940190611adf565b565b91611b0c91611b61565b80611b28611b22611b1d6000611ac7565b611ad3565b91611ad3565b14611b3857611b3690611c1d565b565b611b5d611b456000611ac7565b6000918291631e4fbdf760e01b835260048301611aec565b0390fd5b90611b70611b77926000610d31565b6001610d31565b565b60018060a01b031690565b611b90611b9591611398565b611b79565b90565b611ba29054611b84565b90565b90611bb660018060a01b0391610163565b9181191691161790565b611bd4611bcf611bd992611aa0565b610186565b611aa0565b90565b611be590611bc0565b90565b611bf190611bdc565b90565b90565b90611c0c611c07611c1392611be8565b611bf4565b8254611ba5565b9055565b60000190565b611c276006611b98565b611c32826006611bf7565b90611c66611c607f8be0079c531659141344cd1fd0a4f28419497f9722a3daafe3b4186f6b6457e093611be8565b91611be8565b91611c6f61002c565b80611c7981611c17565b0390a356fe60806040526004361015610013575b61105e565b61001e6000356101cd565b806301ffc9a7146101c857806306fdde03146101c357806307076b0e146101be578063081812fc146101b9578063095ea7b3146101b457806318160ddd146101af5780632273c74e146101aa57806323b872dd146101a55780632f745c59146101a057806342842e0e1461019b57806342966c68146101965780634f6ccce7146101915780636352211e1461018c578063638869fc146101875780636a6278421461018257806370a082311461017d578063715018a6146101785780638da5cb5b1461017357806395d89b411461016e578063a22cb46514610169578063b88d4fde14610164578063c87b56dd1461015f578063d8598d051461015a578063db20583d14610155578063e327a6af14610150578063e985e9c51461014b5763f2fde38b0361000e5761102b565b610ff5565b610f91565b610f5d565b610e4b565b610d60565b610d29565b610bee565b610b67565b610b32565b610aff565b610aca565b610a95565b610a41565b61097d565b610948565b610915565b6108e1565b6108ab565b610877565b610807565b610721565b6106d7565b61064a565b6105da565b61032a565b61025f565b60e01c90565b60405190565b600080fd5b600080fd5b600080fd5b63ffffffff60e01b1690565b6101fd816101e8565b0361020457565b600080fd5b90503590610216826101f4565b565b906020828203126102325761022f91600001610209565b90565b6101de565b151590565b61024590610237565b9052565b919061025d9060006020850194019061023c565b565b3461028f5761028b61027a610275366004610218565b611068565b6102826101d3565b91829182610249565b0390f35b6101d9565b600091031261029f57565b6101de565b5190565b60209181520190565b60005b8381106102c5575050906000910152565b8060209183015181850152016102b4565b601f801991011690565b6102ff61030860209361030d936102f6816102a4565b938480936102a8565b958691016102b1565b6102d6565b0190565b61032791602082019160008184039101526102e0565b90565b3461035a5761033a366004610294565b61035661034561108e565b61034d6101d3565b91829182610311565b0390f35b6101d9565b90565b61036b8161035f565b0361037257565b600080fd5b9050359061038482610362565b565b906020828203126103a05761039d91600001610377565b90565b6101de565b634e487b7160e01b600052603260045260246000fd5b50600890565b90565b6103cd816103bb565b8210156103e8576103df6002916103c1565b91020190600090565b6103a5565b634e487b7160e01b600052602260045260246000fd5b9060016002830492168015610423575b602083101461041e57565b6103ed565b91607f1691610413565b60209181520190565b600052602060002090565b906000929180549061045c61045583610403565b809461042d565b916001811690816000146104b55750600114610478575b505050565b6104859192939450610436565b916000925b81841061049d5750500190388080610473565b6001816020929593955484860152019101929061048a565b92949550505060ff1916825215156020020190388080610473565b906104da91610441565b90565b634e487b7160e01b600052604160045260246000fd5b906104fd906102d6565b810190811067ffffffffffffffff82111761051757604052565b6104dd565b9061053c6105359261052c6101d3565b938480926104d0565b03836104f3565b565b60001c90565b90565b6105536105589161053e565b610544565b90565b6105659054610547565b90565b602e90610574826103bb565b8110156105a157610584916103c4565b509061059e60016105976000850161051c565b930161055b565b90565b600080fd5b6105af9061035f565b9052565b929160206105d06105d893604087019087820360008901526102e0565b9401906105a6565b565b3461060b576105f26105ed366004610386565b610568565b906106076105fe6101d3565b928392836105b3565b0390f35b6101d9565b60018060a01b031690565b61062490610610565b90565b6106309061061b565b9052565b919061064890600060208501940190610627565b565b3461067a57610676610665610660366004610386565b6110a9565b61066d6101d3565b91829182610634565b0390f35b6101d9565b6106888161061b565b0361068f57565b600080fd5b905035906106a18261067f565b565b91906040838203126106cc57806106c06106c99260008601610694565b93602001610377565b90565b6101de565b60000190565b34610706576106f06106ea3660046106a3565b906110c8565b6106f86101d3565b80610702816106d1565b0390f35b6101d9565b919061071f906000602085019401906105a6565b565b3461075157610731366004610294565b61074d61073c6110e3565b6107446101d3565b9182918261070b565b0390f35b6101d9565b61077561077e6020936107839361076c816102a4565b9384809361042d565b958691016102b1565b6102d6565b0190565b6107909061035f565b9052565b6107eb9160606107c86107b66080840160008601518582036000870152610756565b60208501518482036020860152610756565b926107db60408201516040850190610787565b0151906060818403910152610756565b90565b6108049160208201916000818403910152610794565b90565b346108375761083361082261081d366004610386565b6112c7565b61082a6101d3565b918291826107ee565b0390f35b6101d9565b90916060828403126108725761086f6108588460008501610694565b936108668160208601610694565b93604001610377565b90565b6101de565b346108a65761089061088a36600461083c565b91611347565b6108986101d3565b806108a2816106d1565b0390f35b6101d9565b346108dc576108d86108c76108c13660046106a3565b9061146e565b6108cf6101d3565b9182918261070b565b0390f35b6101d9565b34610910576108fa6108f436600461083c565b91611505565b6109026101d3565b8061090c816106d1565b0390f35b6101d9565b346109435761092d610928366004610386565b6118bb565b6109356101d3565b8061093f816106d1565b0390f35b6101d9565b346109785761097461096361095e366004610386565b6118ff565b61096b6101d3565b9182918261070b565b0390f35b6101d9565b346109ad576109a9610998610993366004610386565b611968565b6109a06101d3565b91829182610634565b0390f35b6101d9565b5490565b600052602060002090565b6109ca816109b2565b8210156109e5576109dc6001916109b6565b91020190600090565b6103a5565b1c90565b6109fe906008610a0393026109ea565b610544565b90565b90610a1191546109ee565b90565b603e610a1f816109b2565b821015610a3c57610a3991610a33916109c1565b90610a06565b90565b600080fd5b34610a7157610a6d610a5c610a57366004610386565b610a14565b610a646101d3565b9182918261070b565b0390f35b6101d9565b90602082820312610a9057610a8d91600001610694565b90565b6101de565b34610ac557610ac1610ab0610aab366004610a76565b611c62565b610ab86101d3565b9182918261070b565b0390f35b6101d9565b34610afa57610af6610ae5610ae0366004610a76565b611f0a565b610aed6101d3565b9182918261070b565b0390f35b6101d9565b34610b2d57610b0f366004610294565b610b17611f99565b610b1f6101d3565b80610b29816106d1565b0390f35b6101d9565b34610b6257610b42366004610294565b610b5e610b4d611fcf565b610b556101d3565b91829182610634565b0390f35b6101d9565b34610b9757610b77366004610294565b610b93610b82611fe5565b610b8a6101d3565b91829182610311565b0390f35b6101d9565b610ba581610237565b03610bac57565b600080fd5b90503590610bbe82610b9c565b565b9190604083820312610be95780610bdd610be69260008601610694565b93602001610bb1565b90565b6101de565b34610c1d57610c07610c01366004610bc0565b90611ffb565b610c0f6101d3565b80610c19816106d1565b0390f35b6101d9565b600080fd5b600080fd5b90610c3f610c386101d3565b92836104f3565b565b67ffffffffffffffff8111610c5f57610c5b6020916102d6565b0190565b6104dd565b90826000939282370152565b90929192610c85610c8082610c41565b610c2c565b93818552602085019082840111610ca157610c9f92610c64565b565b610c27565b9080601f83011215610cc457816020610cc193359101610c70565b90565b610c22565b90608082820312610d2457610ce18160008401610694565b92610cef8260208501610694565b92610cfd8360408301610377565b92606082013567ffffffffffffffff8111610d1f57610d1c9201610ca6565b90565b6101e3565b6101de565b34610d5b57610d45610d3c366004610cc9565b92919091612011565b610d4d6101d3565b80610d57816106d1565b0390f35b6101d9565b34610d9057610d8c610d7b610d76366004610386565b612370565b610d836101d3565b91829182610311565b0390f35b6101d9565b50600a90565b90565b610da781610d95565b821015610dc257610db9600391610d9b565b91020190600090565b6103a5565b601090610dd382610d95565b811015610e0c57610de391610d9e565b50610df06000820161051c565b91610e096002610e026001850161051c565b930161055b565b90565b600080fd5b939290610e41610e4993610e33604093606089019089820360008b01526102e0565b9087820360208901526102e0565b9401906105a6565b565b34610e7e57610e7a610e66610e61366004610386565b610dc7565b610e719391936101d3565b93849384610e11565b0390f35b6101d9565b67ffffffffffffffff8111610ea157610e9d6020916102d6565b0190565b6104dd565b90929192610ebb610eb682610e83565b610c2c565b93818552602085019082840111610ed757610ed592610c64565b565b610c27565b9080601f83011215610efa57816020610ef793359101610ea6565b90565b610c22565b919091604081840312610f5857600081013567ffffffffffffffff8111610f535783610f2c918301610edc565b92602082013567ffffffffffffffff8111610f4e57610f4b9201610edc565b90565b6101e3565b6101e3565b6101de565b34610f8c57610f76610f70366004610eff565b906124cb565b610f7e6101d3565b80610f88816106d1565b0390f35b6101d9565b34610fc257610fbe610fad610fa73660046106a3565b906124d7565b610fb56101d3565b91829182610249565b0390f35b6101d9565b9190604083820312610ff05780610fe4610fed9260008601610694565b93602001610694565b90565b6101de565b346110265761102261101161100b366004610fc7565b90612557565b6110196101d3565b91829182610249565b0390f35b6101d9565b346110595761104361103e366004610a76565b6125e7565b61104b6101d3565b80611055816106d1565b0390f35b6101d9565b600080fd5b600090565b61107a90611074611063565b506125f2565b90565b606090565b61108b9061051c565b90565b61109661107d565b506110a16000611082565b90565b600090565b6110c5906110b56110a4565b506110bf81612632565b506126a2565b90565b906110dc91906110d66126c1565b916126ce565b565b600090565b6110eb6110de565b506110f660096109b2565b90565b6111036080610c2c565b90565b606090565b600090565b6111186110f9565b90602080808085611127611106565b815201611132611106565b81520161113d61110b565b815201611148611106565b81525050565b611156611110565b90565b90565b90565b61117361116e61117892611159565b61115c565b610610565b90565b6111849061115f565b90565b60007f506f6b656d6f6e20646f6573206e6f7420657869737400000000000000000000910152565b6111bc60166020926102a8565b6111c581611187565b0190565b6111df90602081019060008183039101526111af565b90565b156111e957565b6111f16101d3565b62461bcd60e51b815280611207600482016111c9565b0390fd5b61121f61121a6112249261035f565b61115c565b61035f565b90565b906112319061120b565b600052602052604060002090565b52565b9061124c9061035f565b9052565b906112b96112b060036112616110f9565b9461127a6112716000830161051c565b6000880161123f565b6112926112896001830161051c565b6020880161123f565b6112aa6112a16002830161055b565b60408801611242565b0161051c565b6060840161123f565b565b6112c490611250565b90565b61130c611311916112d661114e565b506113056112e3826126de565b6112fe6112f86112f3600061117b565b61061b565b9161061b565b14156111e2565b600e611227565b6112bb565b90565b60409061133e611345949695939661133460608401986000850190610627565b60208301906105a6565b0190610627565b565b91908061136561135f61135a600061117b565b61061b565b9161061b565b146113bd5761137d90826113776126c1565b916126fd565b918261139161138b8361061b565b9161061b565b0361139b57505050565b6113b990919260009384936364283d7b60e01b855260048501611314565b0390fd5b6113e26113ca600061117b565b6000918291633250574960e11b835260048301610634565b0390fd5b91602061140892949361140160408201966000830190610627565b01906105a6565b565b61141e61141961142392610610565b61115c565b610610565b90565b61142f9061140a565b90565b61143b90611426565b90565b9061144890611432565b600052602052604060002090565b906114609061120b565b600052602052604060002090565b6114766110de565b508161149261148c61148784611f0a565b61035f565b9161035f565b10156114b7576114b4916114aa6114af92600761143e565b611456565b61055b565b90565b6114d2600092839263295f44f760e21b8452600484016113e6565b0390fd5b906114e86114e383610e83565b610c2c565b918252565b6114f760006114d6565b90565b6115026114ed565b90565b9161151992916115136114fa565b92612011565b565b60007f4f6e6c79206f776e65722063616e206275726e21210000000000000000000000910152565b61155060156020926102a8565b6115598161151b565b0190565b6115739060208101906000818303910152611543565b90565b1561157d57565b6115856101d3565b62461bcd60e51b81528061159b6004820161155d565b0390fd5b906115b390600019906020036008026109ea565b8154169055565b1b90565b919060086115da9102916115d4600019846115ba565b926115ba565b9181191691161790565b90565b91906115fd6115f86116059361120b565b6115e4565b9083546115be565b9055565b61161b916116156110de565b916115e7565b565b5b818110611629575050565b806116376000600193611609565b0161161e565b9061164e90600019906008026109ea565b191690565b8161165d9161163d565b906002021790565b9060009161167d61167582610436565b928354611653565b905555565b601f602091010490565b919290602082106000146116e657601f84116001146116b6576116b0929350611653565b90555b5b565b50906116dc6116e19360016116d36116cd85610436565b92611682565b8201910161161d565b611665565b6116b3565b5061171d82936116f7600194610436565b61171661170385611682565b820192601f861680611728575b50611682565b019061161d565b6002021790556116b4565b6117349088860361159f565b38611710565b92909168010000000000000000821161179c5760201160001461178d57602081106000146117715761176b91611653565b90555b5b565b60019160ff191661178184610436565b5560020201905561176e565b6001915060020201905561176f565b6104dd565b9081546117ad81610403565b908183116117d6575b8183106117c4575b50505050565b6117cd9361168c565b388080806117be565b6117e28383838761173a565b6117b6565b634e487b7160e01b600052601160045260246000fd5b61180c6118129193929361035f565b9261035f565b9161181e83820261035f565b92818404149015171561182d57565b6117e7565b600061183d916117a1565b565b634e487b7160e01b600052600060045260246000fd5b906000036118685761186690611832565b565b61183f565b600060036118a19261188183808301611855565b61188e8360018301611855565b61189b8360028301611609565b01611855565b565b906000036118b6576118b49061186d565b565b61183f565b60006118f86118fd926118e86118d082611968565b6118e26118dc3361061b565b9161061b565b14611576565b6118f181612716565b600e611227565b6118a3565b565b6119076110de565b508061192261191c6119176110e3565b61035f565b9161035f565b101561193f5761193661193c9160096109c1565b90610a06565b90565b611949600061117b565b611964600092839263295f44f760e21b8452600484016113e6565b0390fd5b61197a906119746110a4565b50612632565b90565b6119869061035f565b60001981146119955760010190565b6117e7565b60001b90565b906119ad6000199161199a565b9181191691161790565b906119cc6119c76119d39261120b565b6115e4565b82546119a0565b9055565b634e487b7160e01b600052601260045260246000fd5b6119f96119ff9161035f565b9161035f565b908115611a0a570690565b6119d7565b90565b611a26611a21611a2b92611a0f565b61115c565b61035f565b90565b611a3d611a439193929361035f565b9261035f565b8201809211611a4e57565b6117e7565b611a67611a62611a6c92611159565b61115c565b61035f565b90565b6001611a7b910161035f565b90565b611a886080610c2c565b90565b90565b611aa2611a9d611aa792611a8b565b61115c565b61035f565b90565b5190565b9190601f8111611abe575b505050565b611aca611aef93610436565b906020611ad684611682565b83019310611af7575b611ae890611682565b019061161d565b388080611ab9565b9150611ae881929050611adf565b90611b0f816102a4565b9067ffffffffffffffff8211611bd157611b3382611b2d8554610403565b85611aae565b602090601f8311600114611b6857918091611b5793600092611b5c575b5050611653565b90555b565b90915001513880611b50565b601f19831691611b7785610436565b9260005b818110611bb957509160029391856001969410611b9f575b50505002019055611b5a565b611baf910151601f84169061163d565b9055388080611b93565b91936020600181928787015181550195019201611b7b565b6104dd565b90611be091611b05565b565b611bec905161035f565b90565b90611c4e60606003611c5494611c1460008201611c0e60008801611aaa565b90611bd6565b611c2d60018201611c2760208801611aaa565b90611bd6565b611c4660028201611c4060408801611be2565b906119b7565b019201611aaa565b90611bd6565b565b90611c6091611bef565b565b611c6a6110de565b50611c75600b61055b565b611c88611c818261197d565b600b6119b7565b611cb6611ca6611c966127f4565b611ca0600c61055b565b906119ed565b611cb06001611a12565b90611a2e565b90611cbf61107d565b92611cc861107d565b92611cd161107d565b93611cdc6000611a53565b90611ce76000611a53565b915b82611d05611cff611cfa6010610d95565b61035f565b9161035f565b1015611ee557611d2d90611d276002611d2060108790610d9e565b500161055b565b90611a2e565b9183611d41611d3b8561035f565b9161035f565b1115611d5657611d5090611a6f565b91611ce9565b9394959650505050611d8d6001611d86611d7e6000611d7760108790610d9e565b5001611082565b936010610d9e565b5001611082565b905b611dbd611dad611d9d6127f4565b611da7600d61055b565b906119ed565b611db76001611a12565b90611a2e565b611dc76000611a53565b611dd16000611a53565b905b81611def611de9611de4602e6103bb565b61035f565b9161035f565b1015611eca57611e1790611e116001611e0a602e86906103c4565b500161055b565b90611a2e565b9082611e2b611e258461035f565b9161035f565b1115611e4057611e3a90611a6f565b90611dd3565b611ec7969750611eaf9250611ec094939150611e9d611e6f6000611e68611ea694602e6103c4565b5001611082565b925b9492611e98600a9194611e8f611e85611a7e565b9860008a0161123f565b6020880161123f565b611a8e565b60408501611242565b6060830161123f565b611ebb600e8690611227565b611c56565b8290612851565b90565b50505090611eaf611ec79495611ea6611e9d611ec095611e71565b5092939495915050611d8f565b90611efc90611432565b600052602052604060002090565b611f126110de565b5080611f2f611f29611f24600061117b565b61061b565b9161061b565b14611f4a57611f42611f47916003611ef2565b61055b565b90565b611f6f611f57600061117b565b60009182916322718ad960e21b835260048301610634565b0390fd5b611f7b612867565b611f83611f85565b565b611f97611f92600061117b565b6128f4565b565b611fa1611f73565b565b60018060a01b031690565b611fba611fbf9161053e565b611fa3565b90565b611fcc9054611fae565b90565b611fd76110a4565b50611fe26006611fc2565b90565b611fed61107d565b50611ff86001611082565b90565b61200f916120076126c1565b91909161299a565b565b91612035939161202384828491611347565b61202b6126c1565b9390919293612b6a565b565b60007f546f6b656e20494420646f6573206e6f742065786973742e0000000000000000910152565b61206c60186020926102a8565b61207581612037565b0190565b61208f906020810190600081830391015261205f565b90565b1561209957565b6120a16101d3565b62461bcd60e51b8152806120b760048201612079565b0390fd5b905090565b6000693d913730b6b2911d101160b11b910152565b6120e1600a80926120bb565b6120ea816120c0565b0190565b61211361210a92602092612101816102a4565b948580936120bb565b938491016102b1565b0190565b600061088b60f21b910152565b612130600280926120bb565b61213981612117565b0190565b6000681134b6b0b3b2911d1160b91b910152565b61215d600980926120bb565b6121668161213d565b0190565b7f2261747472696275746573223a205b7b2274726169745f74797065223a202254600082015260206f3cb832911610113b30b63ab2911d101160811b910152565b6121b7603080926120bb565b6121c08161216a565b0190565b600062089f4b60ea1b910152565b6121de600380926120bb565b6121e7816121c4565b0190565b7f7b2274726169745f74797065223a2022526172697479222c202276616c75652260008201526020621d101160e91b910152565b61222b602380926120bb565b612234816121eb565b0190565b600061227d60f01b910152565b612251600280926120bb565b61225a81612238565b0190565b60007f5d7d000000000000000000000000000000000000000000000000000000000000910152565b612292600280926120bb565b61229b8161225e565b0190565b6122fb6122f661230b956122f06122eb6122e6612306986122e06122db6122d66123109e9b6122d06123009c6120d5565b906120ee565b612124565b612151565b906120ee565b612124565b6121ab565b906120ee565b6121d2565b61221f565b906120ee565b612245565b612286565b90565b90565b90565b60007f646174613a6170706c69636174696f6e2f6a736f6e3b6261736536342c000000910152565b61234d601d80926120bb565b61235681612319565b0190565b9061236761236d92612341565b906120ee565b90565b61243161244061241d6124186124136123cc6123c76124459761239161107d565b506123c061239e826126de565b6123b96123b36123ae600061117b565b61061b565b9161061b565b1415612092565b600e611227565b6112bb565b61240e60008201516123ff606060208501519401516123ea83612cc6565b946123f36101d3565b9586946020860161229f565b602082018103825203826104f3565b612313565b612316565b612d62565b6124256101d3565b9283916020830161235a565b602082018103825203826104f3565b612313565b90565b9061245a91612455612867565b6124b5565b565b90565b61246b6124709161035f565b61245c565b9052565b61248461248b91602094936120ee565b809261245f565b0190565b6124a361249a6101d3565b92839283612474565b03902090565b6124b29161248f565b90565b6124c46124c99291600f6124a9565b611bd6565b565b906124d591612448565b565b906124f66124f06124fc926124ea611063565b506126de565b9261061b565b9161061b565b1490565b9061250a90611432565b600052602052604060002090565b9061252290611432565b600052602052604060002090565b60ff1690565b6125426125479161053e565b612530565b90565b6125549054612536565b90565b61257c916125726125779261256a611063565b506005612500565b612518565b61254a565b90565b6125909061258b612867565b612592565b565b806125ae6125a86125a3600061117b565b61061b565b9161061b565b146125be576125bc906128f4565b565b6125e36125cb600061117b565b6000918291631e4fbdf760e01b835260048301610634565b0390fd5b6125f09061257f565b565b6125fa611063565b508061261561260f63780e9d6360e01b6101e8565b916101e8565b14908115612622575b5090565b61262c9150612d82565b3861261e565b61263a6110a4565b50612644816126de565b908161266161265b612656600061117b565b61061b565b9161061b565b1461266a575090565b612686906000918291637e27328960e01b83526004830161070b565b0390fd5b906126949061120b565b600052602052604060002090565b6126b96126be916126b16110a4565b50600461268a565b611fc2565b90565b6126c96110a4565b503390565b916126dc9291600192612dea565b565b6126f56126fa916126ed6110a4565b50600261268a565b611fc2565b90565b916127139261270a6110a4565b50919091612f37565b90565b612734612723600061117b565b8261272e600061117b565b916126fd565b61274f612749612744600061117b565b61061b565b9161061b565b146127575750565b612773906000918291637e27328960e01b83526004830161070b565b0390fd5b60601b90565b61278690612777565b90565b6127929061277d565b90565b6127a16127a69161061b565b612789565b9052565b602093926127ca85836127c26014956127d29761245f565b018092612795565b01809261245f565b0190565b60200190565b5190565b6127ec6127f19161053e565b61120b565b90565b6127fc6110de565b5061284e426128363391612827612813600b61055b565b61281b6101d3565b948593602085016127aa565b602082018103825203826104f3565b612848612842826127dc565b916127d6565b206127e0565b90565b90612865919061285f6114fa565b9161300f565b565b61286f611fcf565b61288861288261287d6126c1565b61061b565b9161061b565b0361288f57565b6128b261289a6126c1565b600091829163118cdaa760e01b835260048301610634565b0390fd5b906128c760018060a01b039161199a565b9181191691161790565b90565b906128e96128e46128f092611432565b6128d1565b82546128b6565b9055565b6128fe6006611fc2565b6129098260066128d4565b9061293d6129377f8be0079c531659141344cd1fd0a4f28419497f9722a3daafe3b4186f6b6457e093611432565b91611432565b916129466101d3565b80612950816106d1565b0390a3565b9061296160ff9161199a565b9181191691161790565b61297490610237565b90565b90565b9061298f61298a6129969261296b565b612977565b8254612955565b9055565b919091826129b96129b36129ae600061117b565b61061b565b9161061b565b14612a2d576129dd826129d86129d160058590612500565b8690612518565b61297a565b919091612a28612a16612a107f17307eab39ab6107e8899845ad3d59bd9653f200f220920489ca2b5937696c3193611432565b93611432565b93612a1f6101d3565b91829182610249565b0390a3565b612a49836000918291630b61174360e31b835260048301610634565b0390fd5b612a569061140a565b90565b612a6290612a4d565b90565b612a6e90611426565b90565b60e01b90565b90505190612a84826101f4565b565b90602082820312612aa057612a9d91600001612a77565b90565b6101de565b60209181520190565b612acd612ad6602093612adb93612ac4816127dc565b93848093612aa5565b958691016102b1565b6102d6565b0190565b9092612b1390612b09612b209694612aff60808601976000870190610627565b6020850190610627565b60408301906105a6565b6060818403910152612aae565b90565b90612b35612b3083610c41565b610c2c565b918252565b606090565b3d600014612b5c57612b503d612b23565b903d6000602084013e5b565b612b64612b3a565b90612b5a565b9193843b612b81612b7b6000611a53565b9161035f565b11612b8e575b5050505050565b612bc76000602094612bd2612baa612ba58a612a59565b612a65565b9463150b7a02929698612bbb6101d3565b998a9889978896612a71565b865260048601612adf565b03925af18091600092612c96575b5015600014612c5257506001612bfc57505b3880808080612b87565b612c04612b3f565b90612c0e826127dc565b612c21612c1b6000611a53565b9161035f565b14600014612c4957612c45906000918291633250574960e11b835260048301610634565b0390fd5b50805190602001fd5b612c6b612c65630a85bd0160e11b6101e8565b916101e8565b03612c765750612bf2565b612c92906000918291633250574960e11b835260048301610634565b0390fd5b612cb891925060203d8111612cbf575b612cb081836104f3565b810190612a86565b9038612be0565b503d612ca6565b612cdd612ce291612cd561107d565b50600f6124a9565b611082565b90565b60207f6768696a6b6c6d6e6f707172737475767778797a303132333435363738392b2f917f4142434445464748494a4b4c4d4e4f505152535455565758595a61626364656660008201520152565b612d3d60406114d6565b90612d4a60208301612ce5565b565b612d54612d33565b90565b612d5f612d4c565b90565b612d7f90612d6e61107d565b50612d77612d57565b6001916130f4565b90565b612d8a611063565b5080612da5612d9f6380ac58cd60e01b6101e8565b916101e8565b148015612dc9575b908115612db9575b5090565b612dc39150613283565b38612db5565b5080612de4612dde635b5e139f60e01b6101e8565b916101e8565b14612dad565b919092808015612f13575b612e13575b505090612e0c612e119291600461268a565b6128d4565b565b612e1c84612632565b9180612e39612e33612e2e600061117b565b61061b565b9161061b565b141580612ef8575b80612ede575b612ebe575091612e0c91612e119493612e63575b509192612dfa565b818490612ea2612e9c612e967f8c5be1e5ebec7d5bd14f71427d1e84f3dd0314c0f7b2291e5b200ac8c7c3b92595611432565b92611432565b9261120b565b92612eab6101d3565b80612eb5816106d1565b0390a438612e5b565b612eda90600091829163a9fbf51f60e01b835260048301610634565b0390fd5b50612ef3612eed848390612557565b15610237565b612e47565b5082612f0c612f068361061b565b9161061b565b1415612e41565b5081612f30612f2a612f25600061117b565b61061b565b9161061b565b1415612df5565b9091612f5090612f456110a4565b5082908490916132c5565b9182612f6d612f67612f62600061117b565b61061b565b9161061b565b14600014612fe157612f7e8161356b565b5b81612f9b612f95612f90600061117b565b61061b565b9161061b565b14600014612fb157612fad915061365a565b5b90565b82612fc4612fbe8461061b565b9161061b565b03612fd1575b5050612fae565b612fda916135c3565b3880612fca565b82612ff4612fee8461061b565b9161061b565b03612fff575b612f7f565b61300a83829061344c565b612ffa565b909161303c926130208382906136f2565b6130286126c1565b92613033600061117b565b90919293612b6a565b565b6130466114ed565b90565b90565b61306061305b61306592613049565b61115c565b61035f565b90565b90565b61307f61307a61308492613068565b61115c565b61035f565b90565b90565b61309e6130996130a392613087565b61115c565b61035f565b90565b6130b26130b89161035f565b9161035f565b9081156130c3570490565b6119d7565b369037565b906130f26130da836114d6565b926020806130e88693610e83565b92019103906130c8565b565b9190916130ff61107d565b50613109816127dc565b61311c6131166000611a53565b9161035f565b146132755781600014613229576001613176613170600461316b613165613155613145886127dc565b61314f600261306b565b90611a2e565b61315f600361308a565b906130a6565b9161304c565b6117fd565b5b6130cd565b93019160208401928290835184016020810191825193600084525b8281106131e257505050526131a6575b505090565b6003905106806001146131ce576002146131c1575b806131a1565b6001603d910353386131bb565b50600281603d6001819403530353386131bb565b6003600191989293980191603f828080865194848660121c168901518153018385600c1c16880151815301828460061c168701518153019116840151815301969190613191565b6001613176613270613260613250600461324b613245886127dc565b9161304c565b6117fd565b61325a600261306b565b90611a2e565b61326a600361308a565b906130a6565b613171565b50505061328061303e565b90565b61328b611063565b506132a561329f6301ffc9a760e01b6101e8565b916101e8565b1490565b906132b4910361035f565b90565b906132c2910161035f565b90565b906132ce6110a4565b506132d8816126de565b92806132f56132ef6132ea600061117b565b61061b565b9161061b565b03613439575b508261331861331261330d600061117b565b61061b565b9161061b565b036133e2575b8161333a61333461332f600061117b565b61061b565b9161061b565b036133ac575b613355826133506002849061268a565b6128d4565b829161339361338d6133877fddf252ad1be2c89b69c2b068fc378daa952ba7f163c4a11628f55a4df523b3ef95611432565b92611432565b9261120b565b9261339c6101d3565b806133a6816106d1565b0390a490565b6133dd6133b96001611a12565b6133d76133c860038690611ef2565b916133d28361055b565b6132b7565b906119b7565b613340565b6134036133ef600061117b565b826133fa600061117b565b90600092612dea565b6134346134106001611a12565b61342e61341f60038790611ef2565b916134298361055b565b6132a9565b906119b7565b61331e565b613446908490839161379d565b386132fb565b6134b26134b7926000926134ad846134a861346684611f0a565b9461348661347e61347960088490611456565b61055b565b95600761143e565b948061349a6134948961035f565b9161035f565b036134b9575b506008611456565b611609565b611456565b611609565b565b6134f5906134f06134d36134ce898b90611456565b61055b565b916134e8836134e38b8490611456565b6119b7565b916008611456565b6119b7565b386134a0565b90565b600052602060002090565b5490565b61351681613509565b821015613531576135286001916134fe565b91020190600090565b6103a5565b9081549168010000000000000000831015613566578261355e9160016135649501815561350d565b906115e7565b565b6104dd565b61359c9061358d61357c60096109b2565b613588600a8490611456565b6119b7565b61359760096134fb565b613536565b565b6135ad6135b39193929361035f565b9261035f565b82039182116135be57565b6117e7565b9061360e613613926136066135ea6135da83611f0a565b6135e46001611a12565b9061359e565b916136016135fa8692600761143e565b8490611456565b6119b7565b916008611456565b6119b7565b565b634e487b7160e01b600052603160045260246000fd5b61363481613509565b801561365557600190039061365261364c838361350d565b90611609565b55565b613615565b60006136d96136de926136d261368361367360096109b2565b61367d6001611a12565b9061359e565b6136cd6136ae6136a86136a061369b600a8890611456565b61055b565b9360096109c1565b90610a06565b916136c5836136bf600984906109c1565b906115e7565b91600a611456565b6119b7565b600a611456565b611609565b6136f06136eb60096134fb565b61362b565b565b908161370f613709613704600061117b565b61061b565b9161061b565b14613774576137299190613723600061117b565b916126fd565b61374461373e613739600061117b565b61061b565b9161061b565b0361374b57565b613770613758600061117b565b60009182916339e3563760e11b835260048301610634565b0390fd5b613799613781600061117b565b6000918291633250574960e11b835260048301610634565b0390fd5b6137b26137ac8284869161381d565b15610237565b6137bb57505050565b6137d66137d06137cb600061117b565b61061b565b9161061b565b146000146137fe576137fa826000918291637e27328960e01b83526004830161070b565b0390fd5b613819600092839263177e802f60e01b8452600484016113e6565b0390fd5b9190613827611063565b508061384461383e613839600061117b565b61061b565b9161061b565b14159283613853575b50505090565b809192935061386a6138648461061b565b9161061b565b149081156138ac575b50918215613886575b505038808061384d565b6138a491925061389861389e916126a2565b9261061b565b9161061b565b14388061387c565b6138b891508290612557565b3861387356fea264697066735822122016e94365397470b338e924783dbfead7e6de98b4a26c532c705a7fc8d9f3e0e364736f6c634300081c0033",
  "linkReferences": {},
  "deployedLinkReferences": {}
}